:1000000000800020BD010000616A0000256A000038
:10001000256A0000256A0000256A0000256A0000A4
:10002000256A0000256A0000256A0000616A000058
:10003000616A0000256A0000616A0000156A00001C
:10004000616A0000616A0000616A0000616A000084
:10005000616A0000616A0000616A0000616A000074
:10006000616A0000616A0000616A0000616A000064
:10007000616A0000616A0000616A0000616A000054
:10008000616A0000616A0000616A0000616A000044
:10009000616A0000616A0000616A0000616A000034
:1000A000F1630000616A0000616A0000616A00009B
:1000B000616A0000616A0000616A0000616A000014
:1000C000616A0000616A0000616A0000616A000004
:1000D000616A0000616A0000616A0000616A0000F4
:1000E000616A0000616A0000616A0000616A0000E4
:1000F000616A0000FD870000616A0000F58C000065
:10010000616A000011910000616A0000616A0000EC
:10011000616A0000616A0000616A0000616A0000B3
:10012000616A0000616A0000616A0000616A0000A3
:10013000616A0000616A0000616A0000616A000093
:10014000616A0000616A0000616A0000616A000083
:100150001D800000358000004D800000658000009B
:10016000616A0000F1710000616A0000616A0000CC
:10017000616A0000616A0000616A0000616A000053
:10018000616A0000616A0000616A0000616A000043
:10019000616A0000616A0000616A0000616A000033
:1001A000616A0000616A0000616A0000616A000023
:1001B000616A0000616A0000B17E0000574B4CF29A
:1001C000205210B51A804DF628121A8000BF00BFC9
:1001D00006F04AFC524B4FF010621A60514A9A6086
:1001E000514ADA60A3F53043203B1A6812F480725A
:1001F00004D14E490A604FF4A8521A604C4B1A7849
:10020000110703D51A7842F008021A70494B4A4C7C
:100210004A482A221A704A4A00239918A14203D256
:10022000195899500433F8E7464B474900228B424E
:1002300002D243F8042BFAE74448454900235A58B0
:100240001A500433B3F5DE7FF9D1424B424A802184
:1002500003F8011B9342FBD1404B3C4A1A60404BD0
:100260000A221A70A3F5805324225A70A0221A7011
:100270009A799207FCD59A79D406FCD4394A9379B5
:1002800003F00C03082B374BF9D103221A714022DB
:100290005A719A799006FCD5324A9179314B4906C8
:1002A000FBD5314A314911600221516020221A7078
:1002B0009A7902F00C020C2AFAD12D4B2D4A1A60C1
:1002C0002D4B2E4A1A6000225A60072243F8042C54
:1002D0002B4AC3F80C2D62B606F04CFE134B1B687C
:1002E000DA0705D5274806F0B9FD274B274A1A60DB
:1002F000274B1B785B0609D5234C244A236893427D
:1003000004D1204806F0AAFD002323600AF014FB64
:1003100006F0B0FB07F080FFFEE700BF0E200540AF
:1003200030800440823F04000100002B14D00340C1
:1003300002D0074000E00740F4BEFF1F80FB000032
:1003400060B5FF1FF4BEFF1F18E9FF1F00B0FF1FBD
:100350000000000000E400E05FE400E008ED00E0E1
:100360000050064000400640448004400000030165
:1003700004800440C010050014E000E0FF76010096
:100380000000202000DD68501CE00340A5C3945A03
:1003900000F00740FFFFFFFFFFFFFFFFFFFFFFFF32
:1003A000FFFFFFFFFFFFFFFFFFFFFFFFFFFFFFFF5D
:1003B000FFFFFFFFFFFFFFFFFFFFFFFFFFFFFFFF4D
:1003C000FFFFFFFFFFFFFFFFFFFFFFFFFFFFFFFF3D
:1003D000FFFFFFFFFFFFFFFFFFFFFFFFFFFFFFFF2D
:1003E000FFFFFFFFFFFFFFFFFFFFFFFFFFFFFFFF1D
:1003F000FFFFFFFFFFFFFFFFFFFFFFFFFFFFFFFF0D
:10040000FFFFFFFFFFFFFFFFFFFFFFFFFEFFFFFFFD
:1004100010B5054C237833B9044B13B10448AFF33E
:1004200000800123237010BDF4BEFF1F00000000F8
:1004300078FB000008B5064B1BB106480649AFF330
:1004400000800648036813B1054B03B1984708BD07
:100450000000000078FB0000F8BEFF1FF4BEFF1F85
:10046000000000000F4B0360417202610023037221
:10047000C36039B11946026942F823100133427A48
:100480009A42F8DC084B1A680AB9186004E053690C
:100490000BB11A46FBE75061002343618380C380A0
:1004A000704700BF60E50000CCE6FF1F174B0360FC
:1004B0000123437200F11803036100230372C36038
:1004C0001946026942F823100133427A9342F8DB5D
:1004D0000F4B1A680AB9186004E053690BB11A4649
:1004E000FBE75061002343618380C380094A0260B7
:1004F0000377038509234385032383855323C3851A
:100500004AF6C0230363A6238386704760E5000094
:10051000CCE6FF1F00F10000144B03601023437270
:1005200000F15803036100230372C3601946026996
:1005300042F823100133427A9342F8DB0C4B1A68DD
:100540000AB9186004E053690BB11A46FBE7506121
:10055000002343618380C380064A02604FF48031E8
:10056000C21891610433402BFAD1704760E5000056
:10057000CCE6FF1F10F1000010B504460F4B0360DE
:100580000023437203610372C3600D4B1A680AB9FA
:10059000186004E053690BB11A46FBE7546100236D
:1005A0006361A380E380074A2260074AE26184F81E
:1005B0002E30204603F064FE204610BD60E50000AA
:1005C000CCE6FF1FB8F600000110013810B4144942
:1005D000144A002344F6CC400F2B9CBF88619061E5
:1005E0000133043104320D2BF6D100230E490622CB
:1005F0004FF4803458584285585882855858C285DF
:100600005858046382860433182BF3D143F23333F2
:10061000034A1362034A13625DF8044B704700BF3C
:10062000E0C2FF1F88C3FF1F64B5FF1F08B5082085
:1006300006F0C4F908BD00BF10B50E480E4B19787E
:1006400004F0BAFC50B90D4C23685B6820460C4995
:1006500019229847204607F0FBFD10BD074C236880
:100660005B68204607491A229847204607F0F0FDAC
:1006700010BD00BF4CE2FF1FC4B5FF1F18E7FF1FEE
:1006800068E5000084E5000010B5084C204602F043
:100690004FFC2046012102F05FFB2046002102F0C2
:1006A0001DFC2046002102F047FB10BD98C4FF1F2F
:1006B00000B587B0732300937423019375230293CD
:1006C00076230393772304930448702171227223C5
:1006D00001F0C8F807B05DF804FB00BFB0C5FF1F0C
:1006E00010B504460348002102F026FB024B1C60B3
:1006F00010BD00BF98C4FF1F00C2FF1FF8B5134C08
:10070000204600210A46012300F066FF20460A2108
:100710000022012300F060FF20460421012213463D
:1007200000F05AFF20460C210122134600F054FF2E
:100730000024064F022601253846E1B232462B46F8
:1007400000F04AFF0234102CF6D1F8BDD0C8FF1FCC
:10075000F8B51C4C204600210A46012300F03CFF5E
:10076000204608210022012300F036FF20460A21FE
:100770000022012300F030FF20460421012213460D
:1007800000F02AFF20460B210122134600F024FF2F
:1007900020460C210122134600F01EFF20460E21A8
:1007A0000122134600F018FF0024064F02260125FF
:1007B0003846E1B232462B4600F00EFF0234102CD0
:1007C000F6D1F8BD62CAFF1FF8B5164C20460021CD
:1007D0000A46012300F000FF2046062100220123E3
:1007E00000F0FAFE20460A210022012300F0F4FE68
:1007F000204604210122134600F0EEFE20460E2181
:100800000122134600F0E8FE0024064F02260125CF
:100810003846E1B232462B4600F0DEFE0234102CA0
:10082000F6D1F8BDF4CBFF1FF8B5134C20460021DC
:100830000A46012300F0D0FE2046062100220123B3
:1008400000F0CAFE204608210122134600F0C4FE33
:1008500020460C210022012300F0BEFE0024064F9A
:10086000022601253846E1B232462B4600F0B4FE9E
:100870000234102CF6D1F8BD86CDFF1FF8B5134C0D
:10088000204600210A46012300F0A6FE20460A2148
:100890000022012300F0A0FE20460421012213467D
:1008A00000F09AFE20460C210122134600F094FE2F
:1008B0000024064F052601253846E1B232462B4674
:1008C00000F08AFE0434102CF6D1F8BD18CFFF1FBB
:1008D000F8B51C4C204600210A46012300F07CFE9E
:1008E000204608210022012300F076FE204609213F
:1008F0000022012300F070FE20460A21002201237D
:1009000000F06AFE20460D210022012300F064FE63
:10091000204604210122134600F05EFE20460C21F1
:100920000122134600F058FE0024064F052601253B
:100930003846E1B232462B4600F04EFE0434102C0D
:10094000F6D1F8BDAAD0FF1FF8B51A4C20460021F9
:100950000A46012300F040FE20460A21002201231E
:1009600000F03AFE204604210122134600F034FE36
:1009700020460C210122134600F02EFE00240D4FCC
:10098000022601253846E1B232462B4600F024FE0D
:100990000234102CF6D1074C2046072103220123F4
:1009A00000F01AFE204609210322012300F014FE64
:1009B000F8BD00BF3CD2FF1FF8B5134C2046002104
:1009C0000A46012300F008FE2046042100220123EC
:1009D00000F002FE204608210022012300F0FCFD69
:1009E00020460C210022012300F0F6FD0224064FD0
:1009F000264601253846E1B232462B4600F0ECFD92
:100A00000434122CF6D1F8BDCED3FF1F10B50D4C17
:100A1000204600210A46012300F0DEFD2046042185
:100A20000022012300F0D8FD2046082100220123E6
:100A300000F0D2FD20460C210022012300F0CCFD65
:100A400010BD00BF60D5FF1FF8B5254C2046002122
:100A50000122134600F0C0FD2046012100220B4672
:100A600000F0BAFD204604210122134600F0B4FD37
:100A7000204606210022012300F0AEFD204607217A
:100A80000022012300F0A8FD204608210122134680
:100A900000F0A2FD20460A210022012300F09CFD67
:100AA00020460C210122134600F096FD20460D2120
:100AB0000022012300F090FD20460F210022012397
:100AC00000F08AFD0024064F052601253846E1B2D4
:100AD00032462B4600F080FD0434102CF6D1F8BDD0
:100AE000F2D6FF1F10B50A20012106F0EBF90A200B
:100AF000012106F0C3F9284B1A7822F0020242F0D5
:100B000005021A7005F04AFA2448282107F0B0F8C7
:100B1000234C204600F0D4FF2046402101F03EF84F
:100B2000FFF754FDFFF7B0FDFFF786FDFFF7C0FDAF
:100B30001C4800F0D1FBFFF779FDFFF7DFFDFFF761
:100B400007FEFFF741FEFFF76FFEFFF797FEFFF787
:100B5000BFFEFFF7F9FEFFF72FFFFFF757FFFFF785
:100B600073FF114C204600F06FFC2046782100F006
:100B70001DFC0E4B5A7B9B7BB2EB430F04DC120136
:100B800092FBF3F309490B82084A074B1A600848A5
:100B9000FFF7A6FD10BD00BFF6E6FF1F0082FF1F96
:100BA0007CC4FF1F54C8FF1F9CC8FF1FD0C8FF1F75
:100BB0001D1500002DE9F84306F0A6F9444B186016
:100BC000444B1B68ABB1444B1B6898470022414B18
:100BD0001A6006F099F93E4B1B68C01A3F4A12682A
:100BE000824206D206F090F9394B1B68C01A3B4A84
:100BF00010603B4B1A683B4B1B68D21A41F288339A
:100C00009A4229D9364B1A68364B1A60364C2368FB
:100C10005B68204635490E22984720462F4B1968BD
:100C20000A22002307F038FB204607F011FB304B67
:100C30001B899B002F4D95FBF3F523685B682046CD
:100C40002D4915229847204629460A22002307F0FD
:100C500023FB204607F0FCFA284800F0B9FE0028E4
:100C600034D0274D0024254FDFF87C80DFF89490A6
:100C7000E6B23846314600F04FFEF8B1D8F8003001
:100C80005B684046494601229847404621460A2271
:100C9000002307F001FB404607F0DAFA29466A7B99
:100CA000AB7BB2EB430F03DC120192FBF3F32B821D
:100CB0000F4B59603846314600F03EFE013405F5D1
:100CC000C975102CD4D11E2006F040F9BDE8F88378
:100CD00078C4FF1FB8C8FF1F00C2FF1F3CC5FF1F1D
:100CE000D4E5FF1F20C4FF1F18E7FF1FA0E5000089
:100CF0009CC8FF1F00879303B0E50000B0C5FF1F2D
:100D0000D0C8FF1FC8E500002DE9F04F87B0B048FC
:100D1000FFF732FCAF48FFF72FFCAF48FFF72CFC82
:100D2000AE48FFF729FCAE48FFF726FCAD48FFF7B9
:100D300023FCAD48FFF720FCAC48FFF71DFCAC4896
:100D4000FFF71AFCAB48FFF717FCAB48FFF714FCA2
:100D5000AA48FFF711FCAA4C2046FFF7A7FBDFF8D3
:100D600034B35846FFF7A2FBDFF82CA35046FFF739
:100D70009DFBA448FFF79AFBDFF820834046FFF76E
:100D800095FBA14F3846FFF791FBA048FFF78EFB7C
:100D90009F48FFF78BFB9F48FFF788FB9E48FFF7B4
:100DA00085FB9E48FFF782FB9D48FFF77FFB9D4D2B
:100DB0002846FFF7B1FB9C4E3046FFF7ADFBDFF84E
:100DC000E0924846022109F11802FFF74BFB974BCE
:100DD000C9F80030484601F0D9FA9548012100F1E0
:100DE0001802FFF73FFB934B914A1360104601F046
:100DF000C7F89148764B0360446000240472447243
:100E0000C46007F027F88D48724A0260C0F804B049
:100E100004724472C46007F01DF889486E4B036089
:100E2000C0F804A004724472C46007F013F8854847
:100E30006A4A0260734B436004724472C46007F0F4
:100E400009F88148664A0260C0F80480047244725E
:100E5000C46006F0FFFF7D48624B03604760047288
:100E60004472C46006F0F6FF79485F4A0260674B3F
:100E7000436004724472C46006F0ECFF75485B4A3C
:100E80000260634B436004724472C46006F0E2FF88
:100E90007148574A02605F4B436004724472C460F9
:100EA00006F0D8FF6D48534A02605B4B4360047202
:100EB0004472C46006F0CEFF69484F4A0260574B47
:100EC000436004724472C46006F0C4FF65484B4A34
:100ED0000260534B436004724472C46006F0BAFF70
:100EE00061483B4A0260456004724472C46006F087
:100EF000B1FF5E48374B0360456004724FF0010854
:100F000080F80980C46006F0A5FF5948324A0260A3
:100F1000456004724FF002034372C46006F09AFF0A
:100F200054482E4A0260456004724FF00303437236
:100F3000C46006F08FFF5048294A02604560047281
:100F40004FF004034372C46006F084FF4B48254A07
:100F50000260456004724FF005034372C46006F0FE
:100F600079FF4748204A0260456004724FF006034B
:100F70004372C46006F06EFF42481C4A026045603E
:100F8000047207274772C46006F064FF3E48184B9E
:100F90000360456004724FF0080B80F809B0C4602C
:100FA00006F058FF3948134A0260456004724FF05A
:100FB000090A80F809A0C46006F04CFF34480E4BC3
:100FC0000360456004724FF00A0242726AE000BF9B
:100FD00064C6FF1F94C6FF1FC4C6FF1FF4C6FF1FD1
:100FE00024C7FF1F54C7FF1F84C7FF1FB4C7FF1FBD
:100FF000E4C7FF1F14C8FF1FA0C1FF1FD0C1FF1F00
:1010000060BFFF1F08C0FF1F78C0FF1FB0C0FF1FD9
:10101000E8C0FF1F20C1FF1F58C1FF1F30C2FF1FC4
:1010200078C2FF1FE0C2FF1F88C3FF1F30F100001E
:1010300014C2FF1F20F10000ECC4FF1FFCC4FF1FFF
:101040000CC5FF1F1CC5FF1F2CC5FF1F54C6FF1F6B
:1010500040C5FF1F50C5FF1F60C5FF1F70C5FF1FA4
:1010600024C4FF1F68C2FF1F38C4FF1F48C4FF1FEE
:1010700058C4FF1F68C4FF1F44C8FF1FB0C2FF1F32
:1010800088C4FF1FD0C2FF1FBCC4FF1FCCC4FF1FFA
:1010900010BFFF1F98BFFF1FD0BFFF1F40C0FF1F23
:1010A00090C5FF1FC46006F0D5FE6648664B03601E
:1010B000456004724FF00B024272C46006F0CAFE33
:1010C0006248634B0360466004724472C46006F079
:1010D000C1FE6048604A02604660047280F8098080
:1010E000C46006F0B7FE5D485D4B03604660047265
:1010F0004FF002024272C46006F0ACFE59485A4BEF
:101100000360466004724FF003024272C46006F04E
:10111000A1FE5648564B0360466004724FF004022D
:101120004272C46006F096FE5248534B036046601C
:1011300004724FF005024272C46006F08BFE4F4805
:101140004F4B0360466004724FF006024272C46067
:1011500006F080FE4B484C4B0360466004724772B9
:10116000C46006F077FE4948494A0260466004724E
:1011700080F809B0C46006F06DFE4648464B036037
:101180004660047280F809A0C46006F063FE43481C
:10119000434A0260466004724FF00A034372C4601F
:1011A00006F058FE3F48284A0260466004724FF03D
:1011B0000B034372C46006F04DFE3B480560C0F867
:1011C000049004724472C46006F044FE374806601E
:1011D000C0F80490047280F80980C46006F03AFEFA
:1011E00033480560334A426004724472C46006F0BA
:1011F00031FE00970E2301930C2302932E481421F5
:101200001522FF2301F08CF92C4D284600F076FAC8
:101210000094019402940394049429482946224698
:10122000234600F0FDFA274A274B1A6005F06CFEB2
:10123000264B1860264B1A68264B1A6007B0BDE88B
:10124000F08F00BF20BFFF1FD0C1FF1FD4C5FF1FFD
:1012500064C6FF1FE4C5FF1F94C6FF1FF4C5FF1F30
:10126000C4C6FF1F04C6FF1FF4C6FF1F14C6FF1F1E
:1012700024C7FF1F24C6FF1F54C7FF1F34C6FF1F0C
:1012800084C7FF1F44C6FF1FB4C7FF1F04C2FF1F50
:10129000E4C7FF1F30BFFF1F14C8FF1FC0C2FF1FDE
:1012A000A0C1FF1F90C1FF1FDCC4FF1F78C3FF1F39
:1012B00080C5FF1F14C2FF1F98C4FF1F40BFFF1F40
:1012C000B0C5FF1FE0F000007CC4FF1F78C4FF1F03
:1012D000D4E5FF1F20C4FF1FF8B50546382303805F
:1012E000244C2068244903F04DF88123EB8060688A
:1012F000224903F047F81D23AB81A068204903F081
:1013000041F81E236B82E0681E4903F03BF8A323DB
:101310002B8320691C4903F035F86223EB83606955
:101320004FF4611103F02EF8AA23AB84A06917498A
:1013300003F028F8AB276F85154EE069314603F0BE
:1013400021F82F86206A314603F01CF88C23EB86A7
:10135000606A104903F016F88223AB87A06A0E4931
:1013600003F010F87823A5F84230E06A0B4903F047
:1013700009F8F8BD94B5FF1F00C9240000B752005A
:1013800000A51A0000B81A0000185F0000226000D3
:10139000005D60000068590000045300008B4E009F
:1013A00010B5044606F02EFF204610BD38B50C4699
:1013B000018169B91C4806F025FF1C4C23685B6855
:1013C00020461B4911229847204606F041FF38BDB0
:1013D0008B00184A92FBF3F3591E174A914207D823
:1013E00003EB43031A0110481449013A06F0F2FED8
:1013F000FF220D4B5A73124B1B7833B10A4B1B7BE8
:1014000003F1604303F564431A70084D2B685B6871
:1014100028460C49162298472846214606F078FFB0
:10142000284606F015FF38BDBCC8FF1F18E7FF1F90
:1014300088EE000000879303575555059515000069
:1014400004E7FF1F9CEE000008B50189FFF7AEFF1F
:1014500008BD00BF2DE9F04383B005462B4B1B6848
:1014600033B12B48002101F067FC0022274B1A60A2
:10147000274CB4F908603C3E6A692046296800F0B0
:10148000B3F8B6B2EB68C3EBC303590052312B6912
:10149000C3EB033306EB031202320E2300934FF625
:1014A000E0730193204609B212B20C2301F010FF41
:1014B00020464FF6FF7102F0DFFE0236B6B200247E
:1014C000134DDFF85090DFF850802846042132B2E7
:1014D00002F0B8FEA3B203EB430338F8133003EB7A
:1014E000430703EB870309EB0307384609F096FF30
:1014F00002462B685B682846394698470134103EFF
:10150000B6B20C2CE1D103B0BDE8F08334C4FF1FA8
:1015100098C4FF1FCCE5000054C8FF1F08B502485F
:10152000FFF798FF08BD00BF9CC8FF1F70B50546B8
:101530000024154E2A686B6903EB430302EB830218
:101540002244937C13F0FF0F03D056F8240003F0DD
:1015500027F801340C2CEDD16B6901336B6169699B
:101560002B681A8A92B2013A914209DD6A682AB15F
:10157000934203D02A600122044B1A6000236B615E
:101580000122034B1A6070BD94B5FF1F34C4FF1FC6
:10159000B8C8FF1F08B50248FFF7C8FF08BD00BF65
:1015A0009CC8FF1F08B5084A782313810023D36025
:1015B0001361936105480370802343730449054A0E
:1015C00009F0AAF908BD00BF9CC8FF1FBCC8FF1FD7
:1015D000A113000060B5FF1F01EB410100EB81008A
:1015E00002449374704700BF2DE9F04F85B08246E6
:1015F0000D469046C2EBC2035B0052339BB202938E
:10160000B0F908303A3B9BB20393002750E004EB5B
:10161000440305EB83033B4410339B7813F0FF0F27
:1016200014D16A7BD2B294FBF2F303FB12434BF664
:101630005762002B18BF5A4613460E2200920193A0
:10164000504631B24A460C2301F042FE04EB4403FB
:1016500005EB83033B4410339B7813F0FF0F0AD054
:101660000E23009340F2FF730193504631B24A4675
:101670000C2301F0EDF944450BD10E2300934FF6F6
:10168000FF7301935046029B19B24A460C2301F0A6
:101690001FFE0134EB7ADBB20E36B6B2A342B6DCE3
:1016A0000137039AA2F110039BB203930C2F0BD0C6
:1016B000EB7A13F0FF0FF3D05226002448F2704B60
:1016C000039B0FFA83F9A2E705B0BDE8F08F00BFD6
:1016D00010B4094B03F5C95410210C200422D9720F
:1016E00018735A739A73198203F5C973A342F6D11A
:1016F0005DF8044B704700BFD0C8FF1F704700BFA4
:101700000F290AD8064B5B5C00EB2310007C03F02A
:101710000F03184100F0010070470020704700BF20
:10172000C4EE00000F290AD8064B5B5C00EB2310C7
:10173000807D03F00F03184100F001007047002086
:10174000704700BFC4EE00000F290CD8064B5A5C4E
:10175000131102F00F02012101FA02F230F8131006
:101760000A4320F813207047B4EE000038B50D4648
:10177000094C017F204604F0CBFE23680F2D34BFB7
:1017800029460F211B68204641F0E001984720467A
:1017900004F0E2FF38BD00BF34E5FF1F38B50C464A
:1017A000017F094804F0B4FE042C28BF0024064D34
:1017B0002B68640044F081011B682846C9B2984731
:1017C000284604F0C9FF38BD34E5FF1F38B505468B
:1017D0000177124C204604F0E9FD2046297F04F0F1
:1017E00097FE23681B68204621219847204604F075
:1017F000B3FF28460021FFF7D1FF28460F21FFF74E
:10180000B5FF2046297F04F083FE23681B6820462D
:10181000A1219847204604F09FFF38BD34E5FF1F03
:10182000016042608360009BC360019B0361029B77
:101830004361039B8361049BC361002380F82030D4
:1018400051B9704752F8041F59B10133DBB280F827
:101850002030082BF6D17047012380F82030024653
:10186000F0E7704730B583B005468DF800108DF86D
:1018700001208DF802309DF818308DF803309DF866
:101880001C308DF804309DF820308DF805309DF81F
:1018900024308DF806309DF828308DF8073090F808
:1018A00020307BB1002455F8240028B102AB23443A
:1018B00013F8081CFFF78AFF0134E4B295F82030D2
:1018C000A342F0D803B030BD08B511F0800F0BD1A2
:1018D0000B0990F820209A4208D950F8230001F013
:1018E0000F01FFF70DFF08BD002008BD002008BD57
:1018F00008B511F0800F0BD10B0990F820209A4207
:1019000008D950F8230001F00F01FFF70BFF08BDC5
:10191000002008BD002008BD70B506460D46FFF743
:10192000D3FF044630462946FFF7E2FF80F001006E
:101930002040C0B270BD00BF08B511F0800F0AD1C1
:101940000B0990F820209A4205D950F8230001F0A5
:101950000F01FFF7F9FE08BD70B50546034653F8C1
:10196000102FC0F816209B884383184C2046297FEF
:1019700004F0CEFD23681B6820464021984720468E
:1019800004F0EAFE2046297F062204F0D9FE002456
:101990000E4E304604F082FC2B1918740134062CCC
:1019A000F7D1AA7D2B7C9A420AD128460023C17D1B
:1019B000427C914206D101330130052BF7D103E07F
:1019C000012070BD012070BD002070BD34E5FF1FF7
:1019D00038B5054690F820307BB10024204655F8F4
:1019E00024301BB110B91846FFF7B6FF0134E4B23A
:1019F00095F82030A342F2D838BD002038BD00BF92
:101A0000002070470020704770B50D461646242907
:101A100008BFC280114C20460A2104F097FE2368BB
:101A20001B682046C5F30721984723681B6820469A
:101A3000E9B2984723681B682046C6F307219847F8
:101A400023681B682046F1B29847204604F084FEC4
:101A5000D0F1010038BF002070BD00BF34E5FF1F8A
:101A600010B5044679B920215522FFF7CDFF034672
:101A700018B3E28842F004022046242192B2FFF714
:101A8000C3FF034619E0012916D12A2140F273123F
:101A9000FFF7BAFF034680B1204620218822FFF7D6
:101AA000B3FF034648B1E28822F004022046242115
:101AB000FFF7AAFF034600E00023184610BD00BF51
:101AC00038B5044601250571334804F06FFC052044
:101AD00005F03CFA2046302144F26002FFF794FF03
:101AE000204626216C22FFF78FFF204628214FF445
:101AF000F972FFF789FF20462C2140F62272FFF78A
:101B000083FF20463C2144F24642FFF77DFF2046FA
:101B1000242140F23712FFF777FF2046302144F2AC
:101B2000FF02FFF771FF204602217322FFF76CFFCF
:101B30004FF4C87005F00AFA20462E2141F61D52D6
:101B4000FFF762FF204604210A46FFF75DFF2046AB
:101B500006214FF49872FFF757FF20460A21102202
:101B6000FFF752FF20460E210022FFF74DFF2046CF
:101B7000102143F63C42FFF747FF2046222147F65B
:101B80007F72FFF741FF204624213622FFF73CFFFA
:101B90002572284638BD00BF34E5FF1F38B504461E
:101BA0000D4679B901230371222147F67F72FFF7B1
:101BB0002BFFE28842F010022046242192B2FFF768
:101BC00023FF38BD802994BFC1F18005002503792A
:101BD0003BB100230371C28822F010022421FFF7D9
:101BE00013FF2046222145EA0522FFF70DFF38BDED
:101BF00010B504460846064908F048FA054908F0B9
:101C00003DF908F093FB01462046FFF7C7FF10BDE2
:101C100000000143EE7CFF3E2DE9F84F0446002111
:101C200006F0F4F88046002800F0A680237F1BB958
:101C300006F0AAF8BDE8F88F031D00F5827E734513
:101C400080F092804FF6FF7A4FF000094FF0040CBD
:101C5000E28B002A55D1227F022A17D1A28DE2837E
:101C600042B14FF0030121774FF480322262C4F871
:101C7000249076E0E28DE28384F81CC0216BA1F50C
:101C80008031D20091FBF2F262626AE0032A0BD14A
:101C900084F81CC0E28DE283216BA1F5803191FBB9
:101CA000F2F2D21062625CE0042A09D14FF0050121
:101CB0002177A4F81EA0226B2262C4F8249020E0B1
:101CC000052A02D1A4F81EA01BE0062A0BD100228F
:101CD00022779E4548D91A605A609A60DA601033BC
:101CE0009E45F8D840E0012A0BD14FF0020222773E
:101CF000628DE2834FF4803191FBF2F2D210626286
:101D00002FE01E685D689F68D968626A206A02EBEE
:101D1000000B3BFB06F093443BFB16F6C0EA06467D
:101D200093443BFB05F093443BFB15F5C0EA0545A6
:101D300093443BFB07F093443BFB17F7C0EA074093
:101D400093443BFB01F75A44226232FB11F2C7EA8B
:101D500002471E605D609860DF60E28B013AE283BB
:101D600010339E453FF674AF20464146002206F0F0
:101D70002BF8404606F008F8BDE8F88F10B5044689
:101D800006F032F9204610BD08B503480349044A5D
:101D900008F0C2FD08BD00BFF0E1FF1F7D1D00007F
:101DA00060B5FF1F08B503480349044A08F0B4FDB5
:101DB00008BD00BFF8E1FF1F7D1D000060B5FF1FDB
:101DC00010B400F58074036831FB03F231FB13F3A8
:101DD00002F30F0203F30F03C2EA034340F8043B8C
:101DE0008442F0D15DF8044B704700BF70B400F539
:101DF0008076B2F5803F11D10023C258CC5892FAB8
:101E000014F2C250C2185468CD186D6894FA15F4D3
:101E100054600833B3F5807FEFD112E051F8043BF2
:101E200032FB03F532FB13F305F30F0503F30F0346
:101E3000C5EA0343046893FA14F440F8044B86425D
:101E4000ECD170BC704700BF2DE9F04180460546DB
:101E5000002427466FB94046214605F0D7FF0746C4
:101E6000A8B1A969B1F5803F11D00430FFF7A8FFF0
:101E70000DE04046214605F0BDFF064638B1381D4D
:101E8000311DAA69FFF7B2FF304605F07DFF01342E
:101E90000435102CDED13FB140463946002205F012
:101EA00093FF384605F070FFBDE8F08108B50021CA
:101EB00005F0A0FF0246A0B172B60A4B186810B92F
:101EC0001A6062B608BD084B1B681BB9064B1A6046
:101ED00062B608BD03490B60034B1A6062B605F099
:101EE00053FF08BD10E2FF1F00E2FF1F38B51C4B77
:101EF0001A68126819791B4B19701B4B9A4206D24B
:101F0000A3F5807404F5807304F5007402E0174BA8
:101F100003F58074164A106898B1021D47F6FF75E4
:101F200032F9021B2944091123F8021B9C42F7D8FD
:101F300005F02AFF0F4B1A680D490A6000221A604B
:101F400005E040F2FF7223F8022B9C42FBD80A4BBB
:101F50001B781BB14FF08042084B1A6038BD00BFA0
:101F600004E2FF1F1F800040A0ABFF1FA0AAFF1FBD
:101F700010E2FF1F00E2FF1F0CE2FF1F08E200E07B
:101F800070B54F48012105F0D1FF4E4B1A6842F45D
:101F900080521A60802203F5032303F6F5731A704A
:101FA0000024494E01253480284604F0CFFF083430
:101FB000A4B223B2B3F5006FF5D1444B1B6813F400
:101FC000800F16D0424B1A6848F6A2731A409A4204
:101FD0000FD1404B1A6840F23F439A4209D13E4B21
:101FE0001B68012B05D13D4B1A6840F201139A4240
:101FF00017D0364B1A6842F480021A600122A3F50A
:102000009033303B1A6040F23F42083B1A60043B79
:1020100048F6A3721A60324A1A6040F20112103375
:102020001A60274C23681A6800222E491960236819
:10203000022119715A7101209871D87119725A725E
:102040009A72DA721A736FF0010159734FF0FF310F
:102050009973D97319691C4919611A755A75D98A06
:102060004FF48071D9821A765A769A76DA76D88BBE
:10207000D983998B06219983237903F1804303F552
:1020800004331A70B0221A7005F0FCFE164B18705B
:102090002279164B1A70227902F110011448154B5F
:1020A00043F8210053119B0003F1604303F56143A2
:1020B00002F01F02012101FA02F21A6070BD00BF96
:1020C00004E2FF1F2C80044000C00C403C80044010
:1020D00000600340046003400C6003401060034054
:1020E000A28F0100A0AAFF1F0CE2FF1F1B8000406F
:1020F000ED1E000000B0FF1F08B503480349044A65
:1021000008F00AFC08BD00BF04E2FF1F7D1D0000AF
:1021100060B5FF1F70B5344B1A6812681979334BDC
:102120001970334B9A420CD2324B1B786BB14FF083
:102130008042314B1A60314D05F5807405F500750C
:1021400008E02E4C04F5807504E02C4D05F58074F4
:1021500005F500752A4B1868D8B12A4B198800EB91
:102160004103043333F8022B24F8042BA542F9D899
:1021700040317F2902D8234B19800FE00026214BE4
:102180001E8005F001FE204B1A681D490A601E6082
:1021900004E0002324F8043BA542FBD8FE3C1B4B83
:1021A0001868D8B11A4B198800EB4103043333F88F
:1021B000022B24F8042BA542F9D840317F2902D8FC
:1021C000134B198070BD0024114B1C8005F0DCFD01
:1021D000104B1A680D490A601C6070BD002324F87A
:1021E000043BA542FBD870BD18E2FF1F1F800040D2
:1021F000A0ADFF1F30E2FF1F08E200E0A0ACFF1F10
:1022000028E2FF1F14E2FF1F34E2FF1F20E2FF1F3E
:1022100024E2FF1F2CE2FF1F10B50446002105F049
:10222000E9FD0146E0B172B61E4B1B6833B91D4B88
:10223000186000221C4B1A8062B611E01B4A12681B
:102240001AB91A4B186062B60AE016480260174ABB
:1022500011600021144A118062B6184605F094FD01
:102260002046012105F0C6FD0246D0B172B6104BE2
:10227000186828B91A6000220E4B1A8062B610BD89
:102280000D4B1B681BB90C4B1A6062B610BD084998
:102290000B60094B1A600022064B1A8062B605F0EB
:1022A00073FD10BD28E2FF1F14E2FF1F34E2FF1F81
:1022B00020E2FF1F24E2FF1F2CE2FF1F30B4254B5A
:1022C0001A6842F400421A60234A116841F0020180
:1022D00011601A6842F002021A60204B1B68002B42
:1022E00036DB1F4B1B68002B32DB4FF086421D4B49
:1022F0001A6041F2100204331A600024A43B1C60EF
:1023000001205C3B1860184A04331A604FF4803196
:1023100004331960154A04331A60154B154D2B60B0
:10232000CC352C60144C2060144C154804600430EB
:10233000016014490A60144A13604FF4C06302F547
:10234000DF3202F5BA721360043213600C3213608C
:1023500030BC70473C8004404080044000F00240A4
:1023600080F0024000F10240030000071B0F010053
:10237000000F0F0F14F0024084F0024003000047EA
:1023800088F0024090F0024094F0024038B5314DA0
:102390002846012105F0CAFD00242F4B1C602F4B5D
:1023A0001C60FFF78BFF4FF4C0622D4B1A602B6847
:1023B0001A682C4A1A602B6802221A715C7101217A
:1023C0009971D9711A725C729C72DC721C736FF015
:1023D00001025A734FF0FF329A73DA731A69224A74
:1023E0001A611C755C75DA8A4FF48072DA821C7689
:1023F0005C769C76DC76D98BDA839A8B06229A837C
:102400002B7903F1804303F504331C708F221A707B
:1024100005F038FD154B18702A79154B1A70154ABE
:10242000136843F0124343F0010313602A7902F169
:1024300010011148114B43F8210053119B0003F187
:10244000604303F5614302F01F02012101FA02F229
:102450001A6038BD18E2FF1F28E2FF1F20E2FF1FAD
:1024600004B00440A0ACFF1F20F0024030E2FF1F88
:102470001B80004000F002401521000000B0FF1F4B
:1024800008B503480349044A08F046FA08BD00BFEE
:1024900018E2FF1F7D1D000060B5FF1F08B503484F
:1024A0000349044A08F038FA08BD00BF38E2FF1FAC
:1024B0007D1D000060B5FF1F08B503480349044AAD
:1024C00008F02AFA08BD00BF40E2FF1F7D1D000092
:1024D00060B5FF1FF0B4074600204FF0010CCB0899
:1024E000FC5C01F00703C3F108039A420BD300FA26
:1024F00003F50CFA03F6013E344044EA05001944A2
:10250000D21AECD10AE090409B1A44FA03F301215D
:1025100001FA02F2013A1340DBB21843F0BC7047F3
:1025200070B400250571114E0660417782770377FC
:102530009DF80C3080F822309DF8103080F8233060
:102540009DF8143080F82130F023C3804FF4A0733D
:102550000381C57445818581012383744FF6FF7221
:102560000282C2810375856170BC7047A8F60000C5
:1025700070B40029C0F20881B0F906408C4240F3E3
:102580000381002AC0F20081B0F90840944240F370
:10259000FB807E4C2478002C28D072B67B4C2478AB
:1025A00014F0010F07D07A4C26687A4D2D6835401B
:1025B000794E35602560754C247814F0020F07D0F1
:1025C000764C2668734D6D683540734E7560256096
:1025D0006E4C247814F0040F07D0714C26686D4DB2
:1025E000AD6835406C4EB560256062B66D4CE468F0
:1025F000B4F1384F0AD06B4C6B4D25604FF0384525
:10260000E5604FF078452561684D25608EB292B245
:1026100090F82010090441F0004141F02A01614C7A
:102620006163E16A11F0F00F18BFA56B01F470410E
:10263000B1F5405FF5D8C47F46EA044444F0104445
:1026400058494C630C46E16A11F0F00F18BFA56BB6
:1026500001F47041B1F5405FF5D8C17F46EA01460B
:1026600046F010464F494E630C46E16A11F0F00FF8
:1026700018BFA56B01F47041B1F5405FF5D890F833
:102680002010090441F0004141F02B01454C6163E9
:10269000E16A11F0F00F18BFA56B01F47041B1F5BC
:1026A000405FF5D8C47F42EA044444F010443D49F9
:1026B0004C630C46E16A11F0F00F18BFA56B01F4F2
:1026C0007041B1F5405FF5D8C17F42EA014242F066
:1026D000104234494A63CA6A12F0F00F18BF8C6B7B
:1026E00002F47042B2F5405FF5D890F82020120451
:1026F00042F0004242F02C022A494A63CA6A12F0B0
:10270000F00F18BF8C6B02F47042B2F5405FF5D841
:10271000244A1168C07F43EA004343F0C053536327
:10272000D36A13F0805F04D113F0F00FF8D0936BED
:10273000F6E71C4B4FF08052DA621960DB6A13F047
:10274000F00F05D0174B9A6BDA6A12F0F00FFAD13E
:102750000E4B1B78C3B113F0010F03D00E4B1A6858
:10276000134B1A60094B1B7813F0020F03D00A4B6E
:102770005A68104B1A60054B1B7813F0040F03D0F6
:10278000054B9A680C4B1A6070BC7047DCE4FF1F65
:1027900080E100E0C4E4FF1FD0E4FF1F84E100E01B
:1027A00088E100E000C0024001401F0000001F80DF
:1027B00000E100E004E100E008E100E0F0B4BDF871
:1027C0001040C68837B28F4240F32781B0F90850D5
:1027D000954240F32281CF18013F35B2AF42A4BFEA
:1027E000C1EB06031BB28E4D2D78002D28D072B69A
:1027F0008B4D2D7815F0010F07D08A4D2F688A4E2A
:1028000036683E40894F3E602E60854D2D7815F02C
:10281000020F07D0864D2F68834E76683E40834F67
:102820007E602E607E4D2D7815F0040F07D0814D0F
:102830002F687D4EB6683E407C4FBE602E6062B60B
:102840007D4DED68B5F1384F0AD07B4D7B4E2E6043
:102850004FF03846EE604FF078462E61784E2E608D
:102860001FFA81FC9DB20CF1FF372F44BFB292B228
:1028700090F820301B0443F0004343F02A036E49D4
:102880004B63CB6A13F0F00F18BF8E6B03F47043E9
:10289000B3F5405FF5D8C17F4CEA014141F01041EA
:1028A000654B59631946CB6A13F0F00F18BF8E6B56
:1028B00003F47043B3F5405FF5D8C17F47EA0141A7
:1028C00041F010415C4B59631946CB6A13F0F00F8D
:1028D00018BF8E6B03F47043B3F5405FF5D890F8E2
:1028E00020301B0443F0004343F02B0352494B6359
:1028F000CB6A13F0F00F18BF8E6B03F47043B3F57F
:10290000405FF5D8C17F42EA014141F010414A4B96
:1029100059631946CB6A13F0F00F18BF8E6B03F49E
:102920007043B3F5405FF5D8C37F42EA034242F0FB
:102930001042414B5A631A46D36A13F0F00F18BF86
:10294000916B03F47043B3F5405FF5D890F82030F5
:102950001B0443F0004343F02C03374A5363D36A0C
:1029600013F0F00F18BF916B03F47043B3F5405FA1
:10297000F5D8314A11E0C37F44EA034343F01043E2
:102980005363D36A13F0F00F18BF916B03F47043D5
:10299000B3F5405FF5D8013DADB22BB2012BEADCB7
:1029A000254B1968C27F44EA024242F0C0525A6382
:1029B0001A46D36A13F0805F04D113F0F00FF8D0F9
:1029C000936BF6E71C4B4FF08052DA621960DB6ABA
:1029D00013F0F00F05D0184B9A6BDA6A12F0F00F73
:1029E000FAD10F4B1B78C3B113F0010F03D00F4B7B
:1029F0001A68144B1A600A4B1B7813F0020F03D0AD
:102A00000A4B5A68104B1A60054B1B7813F0040FE1
:102A100003D0064B9A680D4B1A60F0BC704700BF9C
:102A2000DCE4FF1F80E100E0C4E4FF1FD0E4FF1FEF
:102A300084E100E088E100E000C0024001401F00A6
:102A400000001F8000E100E004E100E008E100E098
:102A50002DE9F003BDF91870BDF81C60C48825B2DB
:102A60008D4240F34E8105890FFA85FC944540F371
:102A7000488101EB030808F1FF380FFA84FCE045B8
:102A8000A4BFC1EB04031BB202EB070C0CF1FF3C2B
:102A90002CB2A445A4BFC2EB05052FB29A4C2478F2
:102AA000002C34D072B6984C247814F0010F0BD05F
:102AB000964CD4F800C0964D2D680CEA0505DFF859
:102AC00068C2CCF8005025608F4C247814F0020FB7
:102AD0000BD0904CD4F800C08D4D6D680CEA050504
:102AE000DFF844C2CCF804502560874C247814F0F9
:102AF000040F0BD0884CD4F800C0854DAD680CEAAB
:102B00000505DFF824C2CCF80850256062B6834C76
:102B1000E468B4F1384F0AD0804C814D25604FF005
:102B20003845E5604FF0784525617E4D25601FFAF8
:102B300081F808F1FF3C9C441FFA8CFC94B2611EA2
:102B4000394489B290F82020120442F0004242F049
:102B50002A02724D6A63EA6A12F0F00F18BFD5F8C4
:102B6000389002F47042B2F5405FF4D8C57F48EA6D
:102B7000054545F01045694A55631546EA6A12F065
:102B8000F00F18BFD5F8388002F47042B2F5405FFC
:102B9000F4D8C57F4CEA054545F010455F4A5563BA
:102BA0001546EA6A12F0F00F18BFD5F838C002F4E3
:102BB0007042B2F5405FF4D890F82020120442F041
:102BC000004242F02B02554D6A63EA6A12F0F00FA0
:102BD00018BFD5F838C002F47042B2F5405FF4D89F
:102BE000C27F44EA024444F010444C4A5463144601
:102BF000E26A12F0F00F18BFA56B02F47042B2F552
:102C0000405FF5D8C27F41EA024141F01041434A9A
:102C100051631146CA6A12F0F00F18BF8C6B02F4B0
:102C20007042B2F5405FF5D890F82020120442F0CF
:102C3000004242F02C0239494A63CA6A12F0F00F8E
:102C400018BF8C6B02F47042B2F5405FF5D8002FCC
:102C50003BDD984631494FF0805C32E0C27F46EA66
:102C6000024242F010424A63CA6A12F0F00F18BFE3
:102C70008C6B02F47042B2F5405FF5D8013D2DB285
:102C8000012DEBD10C68C27F46EA024242F0C052ED
:102C90004A63CA6A12F0805F04D112F0F00FF8D0D4
:102CA0008A6BF6E7C1F82CC00C60CA6A12F0F00F0C
:102CB00004D08A6BCA6A12F0F00FFAD1013F3FB21A
:102CC0001FB1012BDEDD4546C8E70F4B1B78C3B1B2
:102CD00013F0010F03D0144B1A68144B1A600A4BFF
:102CE0001B7813F0020F03D00F4B5A68104B1A6079
:102CF000054B1B7813F0040F03D00B4B9A680D4B58
:102D00001A60BDE8F0037047DCE4FF1F80E100E0DB
:102D1000C4E4FF1F84E100E088E100E000C002405D
:102D200001401F0000001F80D0E4FF1F00E100E011
:102D300004E100E008E100E000B583B0B0F906303E
:102D4000B0F908200092019100210A46FFF780FEA9
:102D500003B05DF804FB00BF10B490F820301B04F2
:102D600043F0004343F036035B4A5363D36A13F0E6
:102D7000F00F18BF946B03F47043B3F5405FF5D8C0
:102D800001F00301C174032900F29F80DFE801F024
:102D900002295077504A1168C37F1B0443F0006337
:102DA00043F048035363D36A13F0805F04D113F0F8
:102DB000F00FF8D0936BF6E7474B4FF08052DA6292
:102DC0001960DB6A13F0F00F05D0434B9A6BDA6A97
:102DD00012F0F00FFAD1F023C3804FF4A0730381F7
:102DE00073E03D4A1168C37F1B0443F0006343F066
:102DF00028035363D36A13F0805F04D113F0F00FFC
:102E0000F8D0936BF6E7344B4FF08052DA621960DA
:102E1000DB6A13F0F00F05D02F4B9A6BDA6A12F0D1
:102E2000F00FFAD14FF4A073C380F02303814CE07C
:102E3000294A1168C37F1B0443F0006343F08803F1
:102E40005363D36A13F0805F04D113F0F00FF8D00E
:102E5000936BF6E7204B4FF08052DA621960DB6A21
:102E600013F0F00F05D01C4B9A6BDA6A12F0F00FDA
:102E7000FAD1F023C3804FF4A073038125E0164AF2
:102E80001168C37F1B0443F0006343F0E8035363FE
:102E9000D36A13F0805F04D113F0F00FF8D0936B76
:102EA000F6E70D4B4FF08052DA621960DB6A13F0DF
:102EB000F00F05D0084B9A6BDA6A12F0F00FFAD1D6
:102EC0004FF4A073C380F0230381002343818381E7
:102ED0005DF8044B704700BF00C0024000290CBFE2
:102EE00020222122114B196890F8200042EA00426A
:102EF00042F000625A631A46D36A13F0805F04D12D
:102F000013F0F00FF8D0936BF6E7084B4FF08052B8
:102F1000DA621960DB6A13F0F00F05D0034B9A6B8D
:102F2000DA6A12F0F00FFAD1704700BF00C0024019
:102F300070B5054690F822300B2B02D0072B40F0DD
:102F4000AE8195F8212002F0FB01082940F0A7810D
:102F500095F82310A1F10D00C0B2012800F29F8165
:102F60000B2B05D16E4B187820F00100187006E08D
:102F7000072B04D16A4B187840F0010018700C2A16
:102F800005D1674B1A7822F002021A7006E0082A6F
:102F900004D1634B1A7842F002021A700D2905D150
:102FA0005F4B1A7822F004021A7006E00E2904D151
:102FB0005B4B1A7842F004021A7002F0EFFF687F50
:102FC000A97F03F085F870B1687F03F0C7F8044665
:102FD000E877A87F03F0C2F8204385F82000287F17
:102FE000FF2805D11CE00023EB7785F8203070BD69
:102FF000012103F067FF287F012103F03FFF052037
:1030000003F0A4FF287F002103F038FF142003F011
:103010009DFF287F012103F031FF962003F096FFEA
:10302000404B1B78002B28D072B63E4B1B7813F018
:10303000010F07D03C4B19683C4A12680A403C49D2
:103040000A601A60374B1B7813F0020F07D0394B18
:103050001968364A52680A4035494A601A60314B4D
:103060001B7813F0040F07D0334B19682F4A92686E
:103070000A402F498A601A6062B6304BDB68B3F1B0
:10308000384F0AD02D4B2E4A1A604FF03842DA6082
:103090004FF078421A612B4A1A602B48274A03786E
:1030A000591ECEB24BB3841C437895F8201043EAE6
:1030B000014343F000435363D36A13F0F00F18BF8A
:1030C000916B03F47043B3F5405FF5D8A01911E09C
:1030D00014F8013BE97F43EA014343F000435363A3
:1030E000D36A13F0F00F18BF916B03F47043B3F57C
:1030F000405FF5D88442EBD1D1E7104A116895F8CA
:1031000020301B0443F0006343F011035363D36A80
:1031100013F0805F1AD113F0F00FF8D0936BF6E73D
:10312000F6E6FF1FDCE4FF1F80E100E0C4E4FF1FC0
:10313000D0E4FF1F84E100E088E100E000C002402D
:1031400001401F0000001F8034F60000544B4FF078
:103150008052DA621960DB6A13F0F00F05D0504B31
:103160009A6BDA6A12F0F00FFAD14E4B1B78C3B1AA
:1031700013F0010F03D04C4B1A684C4B1A60494BAB
:103180001B7813F0020F03D0474B5A68484B1A6064
:10319000444B1B7813F0040F03D0434B9A68454B04
:1031A0001A60782003F0D2FE3E4B1B78002B28D00B
:1031B00072B63C4B1B7813F0010F07D03E4B1968D9
:1031C0003E4A12680A4038490A601A60354B1B783B
:1031D00013F0020F07D03A4B1968384A52680A4078
:1031E00031494A601A602F4B1B7813F0040F07D047
:1031F000344B1968314A92680A402B498A601A6038
:1032000062B6274BDB68B3F1384F0AD0244B2E4A05
:103210001A604FF03842DA604FF078421A612B4A58
:103220001A601F4A116895F820301B0443F00063B0
:1032300043F029035363D36A13F0805F04D113F082
:10324000F00FF8D0936BF6E7154B4FF08052DA622F
:103250001960DB6A13F0F00F05D0114B9A6BDA6A34
:1032600012F0F00FFAD10F4B1B78C3B113F0010F1E
:1032700003D00D4B1A680D4B1A600A4B1B7813F0E4
:10328000020F03D0084B5A68094B1A60054B1B7894
:1032900013F0040F03D0044B9A68064B1A6070BDFC
:1032A00000C00240DCE4FF1FD0E4FF1F00E100E0AB
:1032B00004E100E008E100E080E100E0C4E4FF1F79
:1032C00084E100E088E100E001401F0000001F8071
:1032D0002DE9F00FBDF92040BDF82490B34D2D78B5
:1032E000002D28D072B6B14D2D7815F0010F07D002
:1032F000AF4D2F68AF4E36683E40AF4F3E602E60F8
:10330000AA4D2D7815F0020F07D0AC4D2F68A94EAD
:1033100076683E40A84F7E602E60A44D2D7815F053
:10332000040F07D0A64D2F68A24EB6683E40A24FAC
:10333000BE602E6062B6A34DED68B5F1384F0AD07D
:10334000A04DA14E2E604FF03846EE604FF078460B
:103350002E619E4E2E601FFA81F85F1E47441FFAB1
:1033600087FB96B290F82020120442F0004242F00F
:103370002A0294494A63CA6A12F0F00F18BF8D6B93
:1033800002F47042B2F5405FF5D8C17F48EA0141CE
:1033900041F010418B4A51631146CA6A12F0F00F96
:1033A00018BF8D6B02F47042B2F5405FF5D8C17F53
:1033B0004BEA014141F01041824A51631146CA6A09
:1033C00012F0F00F18BF8D6B02F47042B2F5405F3F
:1033D000F5D890F82020120442F0004242F02B026F
:1033E00078494A63CA6A12F0F00F18BF8D6B02F475
:1033F0007042B2F5405FF5D8C17F46EA014141F025
:103400001041704A51631146CA6A12F0F00F18BF9A
:103410008D6B02F47042B2F5405FF5D8C17F46EA89
:10342000014141F01041674A51631146CA6A12F0E6
:10343000F00F18BF8D6B02F47042B2F5405FF5D803
:1034400090F82020120442F0004242F02C025D4924
:103450004A63CA6A12F0F00F18BF8D6B02F4704213
:10346000B2F5405FF5D89C46CA46564D5146C27FDC
:1034700049EA024242F010426A63EA6A12F0F00F2F
:1034800018BFAF6B02F47042B2F5405FF5D80CF193
:10349000FF3C0FFA8CFCBCF1000FE7DC04F1FF3CB1
:1034A000B4441FFA8CFC90F82020120442F0004231
:1034B00042F02A02434D6A63EA6A12F0F00F18BF25
:1034C000AF6B02F47042B2F5405FF5D8C57F48EAB1
:1034D000054545F010453B4A55631546EA6A12F02A
:1034E000F00F18BFAF6B02F47042B2F5405FF5D831
:1034F000C57F4BEA054545F01045324A55631546F0
:10350000EA6A12F0F00F18BFAF6B02F47042B2F526
:10351000405FF5D890F82020120442F0004242F0BB
:103520002B02284D6A63EA6A12F0F00F18BFAF6BE6
:1035300002F47042B2F5405FF5D8C57F4CEA05450C
:1035400045F010451F4A55631546EA6A12F0F00F20
:1035500018BFAF6B02F47042B2F5405FF5D8C57F7B
:103560004CEA054545F01045164A55631546EA6A8A
:1035700012F0F00F18BFAF6B02F47042B2F5405F6B
:10358000F5D890F82020120442F0004242F02C02BC
:103590000C4D6A63EA6A12F0F00F18BFAF6B02F4C9
:1035A0007042B2F5405FF5D8064D11E0DCE4FF1F34
:1035B00080E100E0C4E4FF1FD0E4FF1F84E100E0ED
:1035C00088E100E000C0024001401F0000001F80B1
:1035D000C27F41EA024242F010426A63EA6A12F094
:1035E000F00F18BFAF6B02F47042B2F5405FF5D830
:1035F000013B1BB2002BEBDC90F820301B0443F0A6
:10360000004343F02A03B44A5363D36A13F0F00F24
:1036100018BF956B03F47043B3F5405FF5D8C27FD4
:1036200048EA024242F01042AB4B5A631A46D36A50
:1036300013F0F00F18BF956B03F47043B3F5405FC0
:10364000F5D8C27F48EA024242F01042A24B5A63C8
:103650001A46D36A13F0F00F18BF956B03F470434A
:10366000B3F5405FF5D890F820301B0443F00043D9
:1036700043F02B03984A5363D36A13F0F00F18BF3B
:10368000956B03F47043B3F5405FF5D8C27F46EA0B
:10369000024242F01042904B5A631A46D36A13F02A
:1036A000F00F18BF956B03F47043B3F5405FF5D886
:1036B000C27F4CEA024242F01042874B5A631A46DC
:1036C000D36A13F0F00F18BF956B03F47043B3F592
:1036D000405FF5D890F820301B0443F0004343F0DE
:1036E0002C037D4A5363D36A13F0F00F18BF956B18
:1036F00003F47043B3F5405FF5D8A046764AC37F24
:1037000041EA034343F010435363D36A13F0F00FCD
:1037100018BF956B03F47043B3F5405FF5D808F11B
:10372000FF380FFA88F8B8F1000FE8DC90F8203085
:103730001B0443F0004343F02A03674A5363D36AF0
:1037400013F0F00F18BF956B03F47043B3F5405FAF
:10375000F5D8C27F4BEA024242F010425E4B5A63F8
:103760001A46D36A13F0F00F18BF956B03F4704339
:10377000B3F5405FF5D8C27F4BEA024242F01042F7
:10378000554B5A631A46D36A13F0F00F18BF956B66
:1037900003F47043B3F5405FF5D890F820301B0474
:1037A00043F0004343F02B034B4A5363D36A13F0B7
:1037B000F00F18BF956B03F47043B3F5405FF5D875
:1037C000C27F46EA024242F01042434B5A631A4615
:1037D000D36A13F0F00F18BF956B03F47043B3F581
:1037E000405FF5D8C27F4CEA024242F010423A4BA9
:1037F0005A631A46D36A13F0F00F18BF956B03F49F
:103800007043B3F5405FF5D890F820301B0443F0C7
:10381000004343F02C03304A5363D36A13F0F00F94
:1038200018BF956B03F47043B3F5405FF5D82A4A8F
:10383000C37F41EA034343F010435363D36A13F059
:10384000F00F18BF956B03F47043B3F5405FF5D8E4
:10385000013C24B2002CEBDC1F4B196890F82020AF
:10386000120442F000625A631A46D36A13F0805F72
:1038700004D113F0F00FF8D0936BF6E7164B4FF02E
:103880008052DA621960DB6A13F0F00F05D0124B38
:103890009A6BDA6A12F0F00FFAD1104B1B78C3B1B1
:1038A00013F0010F03D00E4B1A680E4B1A600B4B2E
:1038B0001B7813F0020F03D0094B5A680A4B1A60A9
:1038C000064B1B7813F0040F03D0054B9A68074B87
:1038D0001A60BDE8F00F704700C00240DCE4FF1F33
:1038E000D0E4FF1F00E100E004E100E008E100E0B7
:1038F0002DE9F04F8FB005468B460392BDF860A0CE
:10390000BDF864C09DF86860B0F906208A4240F3B3
:10391000E282B0F908200398824240F3DC8206EB91
:10392000460201EB4202012A00F1D58200EBC602F9
:10393000012A00F1D082E24540F05681012E18D0D4
:1039400003EB8303374606EB46010A9172000B92A4
:10395000B000099006EB860108910822059200202C
:103960000490012106919F4A9A180D92B14656463D
:1039700035E103EB8303039A96B206F1080292B293
:1039800003920127974A9A180492B946574680E055
:103990000498815C19EA010F18BF43F001035B0032
:1039A000DBB20132052AF3D15C08002B67D01F2C53
:1039B00002D01E2C17D10AE000972846594632B291
:1039C0000523FEF7FBFE5AE01E2C10D101E04FF05C
:1039D000000A0AEB0B010097284609B232B2042311
:1039E000FEF7ECFE4BE04FF0000A0FFA86F804F009
:1039F0001C031C2B11D11FFA8AFA0AEB0B0100974A
:103A0000284609B242460323FEF7D8FE2401E4B259
:103A10000AF1040A1FFA8AFA2FE004F01803182B9F
:103A200011D11FFA8AFA0AEB0B010097284609B256
:103A300042460223FEF7C2FEE400E4B20AF1030AA2
:103A40001FFA8AFA19E014F0100F10D01FFA8AFA40
:103A50000AEB0B01284609B242463B46FEF788FDB9
:103A6000A400E4B20AF1020A1FFA8AFA05E064002F
:103A7000E4B20AF1010A1FFA8AFA002CA4D14FEA33
:103A800049095FFA89F90136B6B203998E4200F00E
:103A90002282002213467BE70D98815C069808423B
:103AA00018BF43F001035B00DBB20132052AF3D1FA
:103AB0005C08002B00F084801F2C02D01E2C23D128
:103AC00010E00499039B01FB0732CDF800900196AA
:103AD0002846594612B2089BFEF7BAFF70E01E2C2A
:103AE0001FD101E04FF0000A0AFB07B10498039BC5
:103AF00000FB0732CDF800900196284609B212B2B9
:103B0000099BFEF7A5FF5BE00498039900FB0713F0
:103B10004FF0000A1BB207930FFA89F80B9A12B202
:103B20000C9204F01C031C2B13D11FFA8AFA07FB1A
:103B30000AB1CDF800800196284609B2079A0A9B7F
:103B4000FEF786FF2401E4B20AF1040A1FFA8AFA9A
:103B500034E004F01803182B13D11FFA8AFA0AFB79
:103B600007B1CDF800800196284609B2079A0C9B50
:103B7000FEF76EFFE400E4B20AF1030A1FFA8AFAC4
:103B80001CE014F0100F13D01FFA8AFA0AFB07B1D9
:103B9000CDF800800196284609B2079A4346FEF701
:103BA00057FFA400E4B20AF1020A1FFA8AFA05E0FC
:103BB0006400E4B20AF1010A1FFA8AFA002C8ED1DD
:103BC00006984300DBB2069304994B1C9BB2049306
:103BD000059A531E9BB20593002B00F07C810022B6
:103BE000134659E738F100009B4A1278002A28D082
:103BF00072B6994A127812F0010F07D0974A1068EE
:103C0000974909680140974801601160924A12780B
:103C100012F0020F07D0944A106891494968014098
:103C20009048416011608C4A127812F0040F07D05E
:103C30008E4A10688A49896801408A48816011600B
:103C400062B68B4AD268B2F1384F0AD0884A8949A5
:103C500011604FF03841D1604FF0784111618649D1
:103C600011601FFA8BF406EB460704EB4707013F90
:103C7000BFB2039881B201EBC600013880B295F85B
:103C80002020120442F0004242F02A02DFF8E081D4
:103C9000C8F834204246D2F82C8018F0F00F18BF34
:103CA000D2F8389008F47048B8F5405FF3D8EA7F4E
:103CB00044EA024444F010446D4A5463D46A14F058
:103CC000F00F18BFD2F8388004F47044B4F5405FA8
:103CD000F4D8EC7F47EA044444F01044644A546347
:103CE000D46A14F0F00F18BF976B04F47044B4F565
:103CF000405FF5D895F82020120442F0004242F0CF
:103D00002B025B4C62632246D46A14F0F00F18BF9A
:103D1000976B04F47044B4F5405FF5D8EA7F41EA4C
:103D2000024141F01041524A5163D16A11F0F00F43
:103D300018BF946B01F47041B1F5405FF5D8E97F8D
:103D400040EA014141F01041494A5163D16A11F002
:103D5000F00F18BF906B01F47041B1F5405FF5D8DA
:103D600095F82020120442F0004242F02C02404913
:103D70004A630A46D16A11F0F00F18BF906B01F444
:103D80007041B1F5405FF5D803EB8303082104913E
:103D90004FF00108394A1344354A9B4645E01BF869
:103DA000070008EA0000002814BF50466046494654
:103DB000EB7F40EA034343F010435363D36A13F0AD
:103DC000F00F18BF946B03F47043B3F5405FF5D860
:103DD0000131CBB29E42EBD80137052FDFD1002055
:103DE000EB7F4CEA034343F010435363D36A13F071
:103DF000F00F18BF916B03F47043B3F5405FF5D833
:103E00000130C3B29E42EBD8039B01330393DBB274
:103E10009E4201D90027C2E74FEA48085FFA88F8B6
:103E20000498431E9BB204932BB1002EF4D00021C2
:103E300003918946EEE70E4B196895F8202012048D
:103E400042F000625A63DA6A12F0805F18D112F011
:103E5000F00FF8D09A6BF6E7DCE4FF1F80E100E09A
:103E6000C4E4FF1FD0E4FF1F84E100E088E100E02C
:103E700000C0024001401F0000001F8038F1000018
:103E8000164B4FF08052DA621960DB6A13F0F00FC4
:103E900005D0124B9A6BDA6A12F0F00FFAD1104B80
:103EA0001B78C3B113F0010F03D00E4B1A680E4BF1
:103EB0001A600B4B1B7813F0020F03D0094B5A68A2
:103EC0000A4B1A60064B1B7813F0040F03D0054B06
:103ED0009A68074B1A600FB0BDE8F08F00C002402F
:103EE000DCE4FF1FD0E4FF1F00E100E004E100E09C
:103EF00008E100E02DE9F04F85B08046029203937F
:103F0000DDF838A00E46002939D001274FF0000B0C
:103F1000039B5D1C029C00230FFA8AF900E0013527
:103F2000013C07FA04F2164203D00133002CF6D10B
:103F30000EE0002B20DD691EC91AB8F80E20009291
:103F4000404609B24A461BB2FEF738FC5B4613E016
:103F5000002B0ADDE91AB8F80E200092404609B29B
:103F60000FFA8AF21BB2FEF729FC0AF1010A0F9B35
:103F7000013B0F93CCD102E0002CD0D1F5E705B086
:103F8000BDE8F08F2DE9F04F87B00746D0F818B0A4
:103F90009BF80E308B4209D89BF80F20914205D830
:103FA000CB1A9BF8121001FB03F113E09BF81020D1
:103FB0009142C0F0FF809BF81100814200F2FA802C
:103FC0009BF80F0001300144CB1A9A1A9BF812108B
:103FD00001FB02F1DBF800009BF81220FEF77AFAF1
:103FE000DBF8083003EB0008404600210322FEF70F
:103FF00071FA002840F0DE809BF8139040460321C0
:104000004A46FEF767FA044609F103099BF8146073
:10401000404649463246FEF75DFA0546B1449BF8F4
:104020001560404649463246FEF754FA731E012297
:1040300002FA03F3184204D002FA06F3C31A0493F7
:1040400000E00490049A0392B1449BF81660404645
:1040500049463246FEF73EFA731E012202FA03F386
:10406000184204D002FA06F3C31A059300E0059043
:10407000B1449BF81760404649463246FEF72AFA9B
:10408000B7F90A30002BBCBF00237B817B89039AE0
:1040900002FA83FABAF1000F04DA049A9B1A7B81C0
:1040A0004FF0000A0AEB0402B7F906309A4210DD1D
:1040B0003B7D002B7ED0039B002BAEBF0023049AD8
:1040C00053427B819BF81820BB891344BB814FF07E
:1040D000000ABB89B7F908101AB291426ADD7A89E1
:1040E000104478819BF8192002FA83F35B1B059A30
:1040F000C2EB030B0495002D5CD0B1443B465F46F8
:104100009B4609F101064FEAD90318F803206FEA2C
:10411000090303F0070342FA03F313F0010F20D160
:104120000025C5EB0409B9F1200F28BF4FF0200985
:10413000404631464A46FEF7CDF901460097012335
:10414000019358464A4605EB0A03FFF7D3FE4E4457
:104150004D44AC42E5D80137049A013A0492B14685
:1041600025E0404631460322FEF7B4F902300390C1
:1041700009F104090025661B202E28BF2026404691
:1041800049463246FEF7A6F901460097039B019384
:104190005846324605EB0A03FFF7ACFEB1443544FE
:1041A000AC42E8D8039A1744049B9B1A0493049AE0
:1041B000002AA6D107B0BDE8F08F00BF10B584B0CB
:1041C00004460B4682693AB10A2902D10023438191
:1041D00034E0FFF7D7FE31E00A2907D1827C8389DA
:1041E00003EBC20383810023438127E00D2925D0FF
:1041F000B0F90A10B0F90C20C0890090208A019013
:10420000A07C02902046FFF773FBA37C03EB4301E5
:10421000628902EB410292B26281217D71B112B2D8
:10422000B4F90610A3EB830001EB40018A4205DDDF
:10423000A28902EBC303A38100236381012004B0A0
:1042400010BD00BF10B4002906DBC3881CB2A14218
:1042500003DB591E09B200E000214181002A06DB80
:10426000038919B28A4203DB5A1E12B200E000220F
:1042700082815DF8044B70470182C181704700BFA5
:1042800008B50A20012102F01DFE0A20012102F0DA
:10429000F5FD204A137823F0020343F00503137061
:1042A0001D4B196841F4805119601C4B1C49196061
:1042B0004FF03841D9604FF0784119614FF40070E8
:1042C00018490860022018490870184919601378C5
:1042D00013F0010F07BF4FF41072154B4FF400722B
:1042E000144B1A600B4B1B7813F0020F4FF4007243
:1042F0000CBF114B114B1A60064B1B7813F0040FC7
:1043000007BF4FF410720E4B4FF400720D4B1A6042
:1043100008BD00BFF6E6FF1F3C80044000C002401D
:1043200001401F8010C00440FCE6FF1F000C1F80EE
:1043300018B0044008C004401CB004400CC0044045
:1043400014B0044004C0044008B572B6002380F8DD
:104350002F3090F82E3013F0FF0F0FD0002380F88D
:104360002E3062B6064B1B8823B1013B9BB2044A38
:10437000138023B95E2001F075FE08BD62B608BD4A
:1043800048E2FF1F38B504460D46FFF7DDFF5E200B
:1043900001F04EFE7C4B1A8801321A8072B6C5F3CA
:1043A00007427A4B1B78190473B141F0104343F470
:1043B0003063134376494B630A46D36A03F4704370
:1043C000B3F5405FF9D812E0724B1B6800211970F9
:1043D0006F494FF08053CB62134343F430634B6318
:1043E0000A46D36A03F47043B3F5405FF9D8674BCC
:1043F0001B781A046BB1ABB21A4342F01042644B03
:104400005A631A46D36A03F47043B3F5405FF9D890
:1044100012E0604B1B6800221A705D4B4FF0805217
:10442000DA62AAB242F080525A631A46D36A03F49F
:104430007043B3F5405FF9D8544B1B781A045BB155
:1044400042F00042524B5A631A46D36A03F4704357
:10445000B3F5405FF9D80FE04E4B1B6800221A708D
:104460004B4B4FF08051D9625A631A46D36A03F41A
:104470007043B3F5405FF9D8454AD36A13F0F00FA3
:10448000FBD0434B9B6B424AD36A13F0F00FFBD037
:104490003F4B9B6B3E4AD36A13F0F00FFBD03C4B73
:1044A0009B6B3A4B1B781A045BB142F01042384BBD
:1044B0005A631A46D36A03F47043B3F5405FF9D8E0
:1044C0000FE0344B1B6800221A70314B4FF08052C2
:1044D000DA625A631A46D36A03F47043B3F5405F55
:1044E000F9D82A4B1B781A045BB142F08052284B52
:1044F0005A631A46D36A03F47043B3F5405FF9D8A0
:1045000013E0244B1B6800221A70214B4FF080529D
:10451000DA624FF0C0525A631A46D36A13F0805FD2
:10452000FBD01C4B1B6801221A700023A385236259
:1045300004356562164AD36A13F0F00FFBD0144BB2
:10454000996B49BAA1621A46D36A13F0F00FFBD0F7
:104550000F4B9B6B03F47F4241EA0221A162A361EE
:1045600062B6094B1B8823B1013B9BB2064A1380FC
:1045700013B95E2001F076FD94F82E300648074905
:10458000A26A03F07BFE38BD48E2FF1FFCE6FF1F76
:1045900000C00240F8E6FF1F18E7FF1FC0F600004A
:1045A00010B50446FFF7D0FE5E2001F041FD054B3B
:1045B0001A8801321A80237E84F82E300023A385C6
:1045C000236210BD48E2FF1F2DE9F04F83B005467E
:1045D00090F82F3013F0FF0F40F0EA8490F82E305F
:1045E00003F0FF06002B00F0E38403F071FB019061
:1045F000002800F0DD84296A6B6A1944C1F3074280
:10460000A74B1B78180473B142EA000343F0104330
:1046100043F43063A34A5363D36A03F47043B3F59E
:10462000405FF9D812E0A04B1B68002018709D4B2A
:104630004FF08050D862024342F430625A631A4607
:10464000D36A03F47043B3F5405FF9D8944B1B78F9
:104650001A046BB18BB243F010431A43914B5A6367
:104660001A46D36A03F47043B3F5405FF9D812E0F9
:104670008D4B1B6800221A708A4B4FF08052DA6211
:104680008AB242F080525A631A46D36A03F47043E6
:10469000B3F5405FF9D8824B1B781A045BB142F046
:1046A0000042804B5A631A46D36A03F47043B3F551
:1046B000405FF9D80FE07C4B1B6800221A70794BE1
:1046C0004FF08051D9625A631A46D36A03F470439B
:1046D000B3F5405FF9D8734AD36A13F0F00FFBD0FB
:1046E000704B9B6B6F4AD36A13F0F00FFBD06D4B8E
:1046F0009B6B6C4AD36A13F0F00FFBD0694B9B6B3A
:10470000674B1B781A045BB142F01042654B5A6349
:104710001A46D36A03F47043B3F5405FF9D80FE04B
:10472000614B1B6800221A705E4B4FF08052DA62B8
:104730005A631A46D36A03F47043B3F5405FF9D85D
:10474000574B1B781A045BB142F01042554B5A6329
:104750001A46D36A03F47043B3F5405FF9D80FE00B
:10476000514B1B6800221A704E4B4FF08052DA6298
:104770005A631A46D36A03F47043B3F5405FF9D81D
:10478000474B1B781A045BB142F01042454B5A6309
:104790001A46D36A03F47043B3F5405FF9D80FE0CB
:1047A000414B1B6800221A703E4B4FF08052DA6278
:1047B0005A631A46D36A03F47043B3F5405FF9D8DD
:1047C000374B1B781A045BB142F01042354B5A63E9
:1047D0001A46D36A03F47043B3F5405FF9D80FE08B
:1047E000314B1B6800221A702E4B4FF08052DA6258
:1047F0005A631A46D36A03F47043B3F5405FF9D89D
:10480000DDF8049009F10402AC8D032E00F2FC8166
:10481000022E72D0032E00F01881012E40F09583F5
:1048200009F1080100221F4B20481D4EDFF878C017
:1048300090464FF0805E4FF0C0594FF0010ADF6A9A
:1048400017F0F00FFBD09F6BBFB24FEA272B30F869
:104850001BB021F804BCFFB230F8177021F8027CBD
:10486000752A25DC37784FEA074B4FB14BF01047DC
:104870005F63DF6A07F47047B7F5405FF9D837E048
:10488000DCF8007087F80080C3F82CE0C3F834E04F
:10489000DF6A07F47047B7F5405FF9D828E000BF3A
:1048A000FCE6FF1F00C00240F8E6FF1FD4EE000048
:1048B000772A1DDC37784FEA074B4FB14BF0805712
:1048C0005F63DF6A07F47047B7F5405FF9D80FE020
:1048D000DCF8007087F80080C3F82CE0C3F834904F
:1048E000DF6A17F0805FFBD0DCF8007087F800A06B
:1048F00002320431802AA2D11DE30021BE4BBF4801
:10490000BF4EDFF800C388464FF0805EDF6A17F0C5
:10491000F00FFBD09F6BBFB24FEA272930F819A0E8
:10492000FFB230F817900FFA8AFB17460BFA84F49F
:1049300064101480A2F802A00FFA89FA0BEB0A04A3
:1049400064109480A2F80690DC6A14F0F00FFBD09B
:104950009C6BA4B24FEA242930F819B0E4B230F8C5
:1049600014400FFA8BF9CA444FEA6A0AA7F808A064
:10497000A7F80AB009FA84F94FEA6909A7F80C9078
:10498000FC816F2900F3F88237784FEA07494FB16D
:1049900049F010475F63DF6A07F47047B7F5405F7F
:1049A000F9D8E5E2DCF8007087F80080C3F82CE065
:1049B000C3F834E0DF6A07F47047B7F5405FF9D811
:1049C000D6E237784FEA07494FB149F010475F63A5
:1049D000DF6A07F47047B7F5405FF9D82FE0DCF8DD
:1049E000007087F80080C3F82CE0C3F834E0DF6A79
:1049F00007F47047B7F5405FF9D820E037784FEA01
:104A000007494FB149F080575F63DF6A07F4704789
:104A1000B7F5405FF9D812E0DCF8007087F8008045
:104A2000C3F82CE04FF0C0575F63DF6A17F0805F78
:104A3000FBD04FF00107DCF8009089F800700831D6
:104A4000103280297FF462AF77E200266A4BDFF8EC
:104A5000ACE1DFF8ACB1DFF8AC91A846D96A11F04F
:104A6000F00FFBD0996B89B208123EF81000C9B262
:104A70003EF8117024B205B2114604EB440CAC446C
:104A80004FEAAC0CA2F800C004EB050C4FEA6C0C2A
:104A9000A2F802C005EB450C6444A4109480D080B9
:104AA00038B20CEB0004A41014812C18641054814B
:104AB00000EB400C05EB0C04A4109481D781DC6A58
:104AC00014F0F00FFBD09C6BA4B225123EF81550E9
:104AD000E4B23EF814405F2E00F352829BF800705F
:104AE0004FEA074A4FB14AF010475F63DF6A07F4A5
:104AF0007047B7F5405FF9D846E24FF00007D9F8A4
:104B000000A08AF800704FF08057DF625F63DF6AB1
:104B100007F47047B7F5405FF9D835E29BF80070AD
:104B20004FEA074A4FB14AF010475F63DF6A07F464
:104B30007047B7F5405FF9D835E04FF00007D9F876
:104B400000A08AF800704FF08057DF625F63DF6A71
:104B500007F47047B7F5405FF9D824E09BF8007080
:104B60004FEA074A4FB14AF080575F63DF6A07F4A4
:104B70007047B7F5405FF9D815E04FF00007D9F856
:104B800000A08AF800704FF08057DF624FF0C057E6
:104B90005F63DF6A17F0805FFBD04FF00107D9F841
:104BA00000A08AF800702FB2BC444FEAAC0CA1F808
:104BB00010C000EB070C4FEA6C0CA1F812C007EB19
:104BC000470C604480108882CD8220B20CEB000537
:104BD000AD100D833D186D104D8300EB400038443F
:104BE00080108883CC8310362032802E7FF436AF3D
:104BF00045462027A9E100BF00C00240D4EE0000D6
:104C0000FCE6FF1FF8E6FF1F822E59D0832E00F02E
:104C1000DF80812E40F088810021B54BB548DFF858
:104C2000D8E28C464FF080564FF0C0594FF0010843
:104C3000DF6A17F0F00FFBD09F6B7FBA22F8027B80
:104C40007A291ADC07784FEA074A4FB14AF0104731
:104C50005F63DF6A07F47047B7F5405FF9D82BE070
:104C6000DEF8007087F800C0DE625E63DF6A07F47A
:104C70007047B7F5405FF9D81EE07B291CDC077848
:104C80004FEA074A4FB14AF080575F63DF6A07F483
:104C90007047B7F5405FF9D80EE0DEF8007087F88E
:104CA00000C0DE62C3F83490DF6A17F0805FFBD08B
:104CB000DEF8007087F8008001318029B8D13EE12C
:104CC000A34600218A4B8B48DFF82CE28C464FF03C
:104CD00080564FF0C0584FF00109DC6A14F0F00F15
:104CE000FBD09F6B7FBABFB2DC6A14F0F00FFBD031
:104CF0009C6B64BAA4B20FFA87FA0AFA8BFB4FEAEC
:104D00006B0BA2F800B057800AFA84FA4FEA6A0ADD
:104D1000A2F804A0D480772900F33A8107784FEAFB
:104D2000074A4FB14AF010475F63DF6A07F47047E4
:104D3000B7F5405FF9D82FE1DEF8007087F800C0C2
:104D4000DE625E63DF6A07F47047B7F5405FF9D84B
:104D500022E107784FEA074A4FB14AF010475F63F4
:104D6000DF6A07F47047B7F5405FF9D829E0DEF84D
:104D7000007087F800C0DE625E63DF6A07F4704788
:104D8000B7F5405FF9D81CE007784FEA074A4FB102
:104D90004AF080575F63DF6A07F47047B7F5405FFA
:104DA000F9D80EE0DEF8007087F800C0DE62C3F8C4
:104DB0003480DF6A17F0805FFBD0DEF8007087F880
:104DC000009004310832802900F0BC80A34684E7BB
:104DD000A0460021464B4748DFF81CE18C464FF0C7
:104DE00080574FF0010BDC6A14F0F00FFBD09C6B86
:104DF00094FA94FA1FFA8AFADC6A14F0F00FFBD0E6
:104E00009C6B64BAA4B20FFA88F80FFA8AF608EB22
:104E10004809B1444FEAA909A2F8009008EB060935
:104E20004FEA6909A2F8029006EB4609C8444FEA26
:104E3000A808A2F80480A2F806A00FFA84F8C144DA
:104E40004FEAA909A2F8089006EB08094FEA690998
:104E5000A2F80A9008EB48084644B6109681D4811F
:104E60006F2900F39D8006784FEA06484EB148F05E
:104E700010465E63DE6A06F47046B6F5405FF9D808
:104E800092E0DEF8006086F800C0DF625F63DE6AF1
:104E900006F47046B6F5405FF9D885E006784FEA2B
:104EA00006484EB148F010465E63DE6A06F470466E
:104EB000B6F5405FF9D831E0DEF8006086F800C052
:104EC000DF625F63DE6A06F47046B6F5405FF9D8CC
:104ED00024E006784FEA064886B148F080565E63C3
:104EE000DE6A06F47046B6F5405FF9D816E000BFFA
:104EF00000C00240FCE6FF1FF8E6FF1FDEF800607E
:104F000086F800C0DF624FF0C0565E63DE6A16F0BE
:104F1000805FFBD0DEF8006086F800B00831103208
:104F2000802911D0A0465EE7019802F02DFF2846A7
:104F3000FFF70AFA3CE0802707E0402705E04FF43E
:104F4000807702E0802700E0402728460199002270
:104F500002F03AFF019802F017FFAC852B6A1F445C
:104F60002F62AB6A9F4223D32846FFF7EDF91FE07B
:104F700067297FF726AD41E567297FF722AD5EE51A
:104F80004F2E7FF7CBAD0EE64F2E7FF7C7ADE5E591
:104F900073297FF7DEAE14E773297FF7DAAEF3E605
:104FA00067297FF77BAFB9E767297FF777AF90E78E
:104FB00003B0BDE8F08F00BF38B504460A460121B2
:104FC00000F0B2F9B0B104F11005284621460122E3
:104FD00000F04AFF28B928462146002200F044FF8D
:104FE00050B104F13800294600F048FC003018BFE9
:104FF000012038BD002038BD002038BD084B0022FC
:105000005A719A719A721A730221196183F83020C9
:1050100083F83C200349996383F83E20704700BF22
:105020004CE2FF1FF0F60000084B1A6842F4806261
:105030001A604FF00042DA62FF225A631A46D36ABE
:10504000002BFCDA014B986BC0B2704700C00240E5
:1050500010B50446164A174B1A6010F0010F02D023
:10506000FFF7E2FF013C052C04D90321002311487E
:10507000114A02E06108F9D104E04263023C0133C5
:105080008B42FADB4CB10B4A0B48D36A13F0F00F9A
:10509000FBD05063936B023CF7D1002907DD054A32
:1050A000D36A13F0F00FFBD0936B0139F8D110BD28
:1050B00000041F8000C00240FFFF0090064B1A68EA
:1050C00042F480621A604FF00042DA6258631A4676
:1050D000D36A002BFCDA704700C0024008B50528EF
:1050E0001ED8DFE800F003080D1115194FF0384203
:1050F0000E4B1A6017E04FF038420C4B1A6012E06A
:105100000B4A0A4B1A600EE00A4A084B1A600AE082
:10511000094A064B1A6006E0084A044B1A6002E08E
:10512000074A024B1A6000F039FF08BDACE2FF1FCE
:105130000000013801100138032000380320013835
:105140000650003808B50079012101F097FE114B97
:105150001B78F3B100220F4B1A700F4B1B78C3B1B1
:1051600013F0010F03D00D4B1A680D4B1A600A4B58
:105170001B7813F0020F03D0084B5A68094B1A60D2
:10518000054B1B7813F0040F03D0044B9A68064BB1
:105190001A6008BDB0E2FF1FDCE4FF1FD0E4FF1F70
:1051A00000E100E004E100E008E100E010B5244B7C
:1051B0001B78002B3ED10122214B1A70214B1A681B
:1051C000214B1B78002B28D072B61F4B1B7813F095
:1051D000010F07D01D4B1C681D49096821401D4C5B
:1051E00021601960184B1B7813F0020F07D01A4B7F
:1051F0001C68174949682140164C61601960124BC0
:105200001B7813F0040F07D0144B1C6810498968F1
:105210002140104CA160196062B6114BDB689342CB
:1052200008D00F4B0F491960DA6042F080421A61D2
:105230000D4A1A600079002101F020FE10BD00BF68
:10524000B0E2FF1FACE2FF1FDCE4FF1F80E100E0E3
:10525000C4E4FF1FD0E4FF1F84E100E088E100E028
:1052600000C0024001401F0000001F8038B5044606
:1052700083797BB1008940F20123984205D840F23E
:105280000225281AFFF7E4FE25812046FFF75AFF82
:105290000023A37138BD00BF70B50E46084B1C68D3
:1052A0001D46A4B2FFF7C0FEFF2805D02B689BB2B5
:1052B0001B1BB342F6DB01E0012070BD002070BD76
:1052C000D4E5FF1FF8B505460F461646FFF7CEFF9B
:1052D0002846FFF76BFF28464FF49671FFF7DCFF77
:1052E00047F04000FFF7EAFE182426FA04F0C0B2A7
:1052F000FFF7E4FE083C14F1080FF6D127B1082FA0
:105300000CBF8720FF2000E09520FFF7D7FE002488
:10531000FFF78AFEE87210F0800F03D00134B4F575
:10532000807FF5D1F8BD00BF2DE9F04F83B0044672
:105330000191002303738372837143710271824B65
:105340001F68BFB21046012101F098FD20790121AC
:1053500001F0B8FD2079012101F090FD7B4B1A6826
:1053600042F480521A600620FFF7B8FE784B1A68A4
:10537000784B1B78002B28D072B6764B1B7813F035
:10538000010F07D0744B18687449096801407448CC
:10539000016019606F4B1B7813F0020F07D0714B3F
:1053A00018686E49496801406D4841601960694B51
:1053B0001B7813F0040F07D06B4B18686749896896
:1053C000014067488160196062B6684BDB689342B0
:1053D00000F0AB80654B66491960DA6042F08042AC
:1053E0001A61644A1A60A0E02846FFF767FE013E92
:1053F00016F0FF06F8D1574B1B78C3B113F0010F1D
:1054000003D0574B1A685C4B1A60524B1B7813F051
:10541000020F03D0524B5A68584B1A604D4B1B7801
:1054200013F0040F03D04E4B9A68554B1A60204678
:10543000FFF7BCFE4FF00008DFF80C9109E0D9F847
:105440000030DB1B9BB2B3F5FA6F02D90123637105
:1054500067E0204641464246FFF734FF0546E072CA
:105460000128ECD1204608214FF4D572FFF72AFF1E
:1054700010F0040F02D00123237310E04FF0040852
:10548000FFF7D2FDE07208F1FF3313F0FF08F7D108
:10549000AA2802D00223637143E002232373237BF3
:1054A000022B14BF4FF0000A4FF0804A4FF037092B
:1054B0004FF00008DFF890B009E0DBF80030DB1BAC
:1054C0009BB2B3F5FA6F02D90823637129E0204635
:1054D00049464246FFF7F6FE204629215246FFF78D
:1054E000F1FEE0720028E8D1237B022B11D1204687
:1054F0003A210022FFF7E6FE10B10623637110E0A7
:10550000FFF792FD00F0C000C02811D103232373E0
:105510000EE02046FFF716FE0198FFF7DFFD2E464E
:105520000DE02046FFF70EFE09E00A26FF255BE7A7
:10553000FFF77AFDFFF778FDFFF776FDE9E73046E4
:1055400003B0BDE8F08F00BFD4E5FF1F3C800440EE
:10555000ACE2FF1FDCE4FF1F80E100E0C4E4FF1FBA
:10556000D0E4FF1F84E100E088E100E000C00240D9
:1055700001401F0000001F8000E100E004E100E0A6
:1055800008E100E070B504460E4B1D681E46ADB242
:1055900008E033689BB25B1BB3F5967F02DD0F23F7
:1055A000637108E0FFF740FDE072FF28F1D0FE28AC
:1055B00006D00D2363712046FFF7C4FD002070BDA7
:1055C000012070BDD4E5FF1FF8B505460C4617460F
:1055D0001E46002B00F089801344B3F5007F7FDC6A
:1055E00083792BB103688B4202D10389934216D988
:1055F0002C602B7B032B18BF640228461121224606
:10560000FFF760FE10B103236B7169E02846FFF7D6
:10561000B9FF002864D000232B810123AB713846E9
:10562000FFF716FD3046334A334B1A6016F0010F70
:1056300007D0069A541CFFF7F7FC069B1870701EE3
:105640000694052804D9032700232B492B4A02E09E
:105650004708F9D103E04A6301339F42FBDCA0EB2A
:105660004700069A1044824219D214462249DFF8B4
:105670008CC0CA6A12F0F00FFBD0C1F834C08B6B3B
:10568000C3F30722227063700234A042F1D8069A55
:10569000D343034423F0010302331A44069200EB80
:1056A0004700069B98420DD91C461349CA6A12F05E
:1056B000F00FFBD08B6BC3F30722227063700234B0
:1056C000A042F3D82B8933449BB22B81AA7A12B122
:1056D000B3F5007F0BD32846FFF7C8FD0120F8BDC6
:1056E0002846FFF72FFD0020F8BD0120F8BD01205E
:1056F000F8BD00BF00041F8000C00240FFFF009003
:1057000000B583B0009200224FF40073FFF75CFFF6
:1057100003B05DF804FB00BFF8B50646214B1868DE
:1057200040F4806018604FF00040D8625963114621
:1057300002F500770446DA6A002A0FDBFBE7DA6A33
:10574000002A14DBFBE7D36A002B1CDBFBE71123E9
:1057500073713046FFF7F6FC0020F8BD08460A7862
:105760001D6845F480651D60DC625A63E7E7427896
:105770001D6845F480651D60DC625A630231B942E0
:10578000D9D1084ADFE7FF20FFF798FCFF20FFF799
:1057900095FCFFF749FCF07200F01F000528D6D1F8
:1057A0000120F8BD00C0024038B5044615460B463E
:1057B00011B9122343712BE0027B032A18BF4B025D
:1057C00018211A46FFF77EFD10B1042363711FE014
:1057D0002046FE212A46FFF79FFFC8B120464FF41E
:1057E0001671FFF759FD10B91523637110E02046BB
:1057F0000D210022FFF766FD10B9FFF715FC10B16F
:105800001423637104E02046FFF79CFC012038BD9F
:105810002046FFF797FC002038BD00BF014A024B2D
:105820001A60704701100138ACE2FF1F10B5044642
:10583000006A012104F1080200F0B2FA034650B1F7
:10584000E3693BB9A368E361637963F07F03637144
:10585000012300E00123184610BD00BF10B5044627
:10586000006900F0CFF920B1207D034B03EB40101D
:1058700010BD002010BD00BFC0E2FF1F38B50446B8
:105880000D4683790BBB91F82020102A07D1022303
:1058900083710023C3614B8C5B0183610CE0202A80
:1058A00014D103238371496AC161284604F11802A7
:1058B00000F002FA034648B1256201236371002219
:1058C000A260E2602261227500E00023184638BD24
:1058D000F8B504460F4683797BB382698A422BD39D
:1058E000022B02D1E160012327E021B9002383606C
:1058F000C360012321E0C368026A157C09355A1E82
:10590000EA40013921FA05F5AA4200D813B9E36942
:10591000A3600AE0AD1A08E0206AA168324600F0F0
:1059200095F9013D034610B907E004F10806002D82
:10593000F2D1E760012300E000231846F8BD00BF64
:1059400038B50446807918B394F90530002B1BDA7A
:1059500020460121FFF782FF0546C0B1A379012B44
:105960009CBFA369C361A38B4383E38B8382094BF1
:105970001B682BB1183005F1160198472B8B6B82F1
:10598000637903F07F03637100F010F938BD0020E4
:1059900038BD00BFB4E2FF1F2DE9F04F85B00446CB
:1059A000884601928379012B40F0BE80437913F041
:1059B000020F00F0B98013F0040F08D08169C368AA
:1059C0008B4204D0FFF784FF002800F0AD80019ADD
:1059D000002A00F08C801646DFF8B0A1DFF8B0B1E5
:1059E000206AE76890F8049009F1FF3909EA57291D
:1059F000C7F3080719F0FF0929D1002F40F0AA804A
:105A0000A16851B9E36933B92046FFF70FFF0028B9
:105A100040F08E8088E0A3608AE003AA00F016F9C7
:105A2000002800F0A880039B226A92F820004FF61D
:105A3000F871524A102808BF0A46934205D32046FF
:105A4000FFF7F4FE002873D16EE0A36070E0C7F5A5
:105A50000075ADB2AE4238BF3546A368023B027C4A
:105A60009340426913449944B5F5007F12D1DBF8A5
:105A700000304B4504BF4FF0FF33CBF80030404BB4
:105A8000186849464246FFF78FFE00284CD008F5BB
:105A9000007824E07FB9E268A3699A420BD300F052
:105AA00085F8002840D0CBF80090364A137843F0B0
:105AB0000103137005E04846012100F0A3F8002817
:105AC00032D057447819874209D03B46424612F8F3
:105AD000011B03F8011B8342F9D1C71BB844761B95
