:1000000000800020BD0100006D5D0000315D00003A
:10001000315D0000315D0000315D0000315D0000A8
:10002000315D0000315D0000315D00006D5D00005C
:100030006D5D0000315D00006D5D0000215D000020
:100040006D5D00006D5D00006D5D00006D5D000088
:100050006D5D00006D5D00006D5D00006D5D000078
:100060006D5D00006D5D00006D5D00006D5D000068
:100070006D5D00006D5D00006D5D00006D5D000058
:100080006D5D00006D5D00006D5D00006D5D000048
:100090006D5D00006D5D00006D5D00006D5D000038
:1000A000215800006D5D00006D5D00006D5D000079
:1000B0006D5D00006D5D00006D5D00006D5D000018
:1000C0006D5D00006D5D00006D5D00006D5D000008
:1000D0006D5D00006D5D00006D5D00006D5D0000F8
:1000E0006D5D00006D5D00006D5D00006D5D0000E8
:1000F0006D5D0000FD7A00006D5D0000F57F000081
:100100006D5D0000118400006D5D00006D5D0000FC
:100110006D5D00006D5D00006D5D00006D5D0000B7
:100120006D5D00006D5D00006D5D00006D5D0000A7
:100130006D5D00006D5D00006D5D00006D5D000097
:100140006D5D00006D5D00006D5D00006D5D000087
:10015000457300005D730000757300008D7300002F
:100160006D5D0000196500006D5D00006D5D0000B3
:100170006D5D00006D5D00006D5D00006D5D000057
:100180006D5D00006D5D00006D5D00006D5D000047
:100190006D5D00006D5D00006D5D00006D5D000037
:1001A0006D5D00006D5D00006D5D00006D5D000027
:1001B0006D5D00006D5D0000D9710000574B4CF281
:1001C000205210B51A804DF628121A8000BF00BFC9
:1001D00005F0D0FD524B4FF010621A60514A9A6000
:1001E000514ADA60A3F53043203B1A6812F480725A
:1001F00004D14E490A604FF4A8521A604C4B1A7849
:10020000110703D51A7842F008021A70494B4A4C7C
:100210004A482A221A704A4A00239918A14203D256
:10022000195899500433F8E7464B474900228B424E
:1002300002D243F8042BFAE74448454900235A58B0
:100240001A500433B3F5DE7FF9D1424B424A802184
:1002500003F8011B9342FBD1404B3C4A1A60404BD0
:100260000A221A70A3F5805324225A70A0221A7011
:100270009A799207FCD59A79D406FCD4394A9379B5
:1002800003F00C03082B374BF9D103221A714022DB
:100290005A719A799006FCD5324A9179314B4906C8
:1002A000FBD5314A314911600221516020221A7078
:1002B0009A7902F00C020C2AFAD12D4B2D4A1A60C1
:1002C0002D4B2E4A1A6000225A60072243F8042C54
:1002D0002B4AC3F80C2D62B605F0E0FF134B1B68E8
:1002E000DA0705D5274805F03FFF274B274A1A6054
:1002F000274B1B785B0609D5234C244A236893427D
:1003000004D1204805F030FF0023236008F044FDAD
:1003100005F036FD07F014F9FEE700BF0E2005409A
:1003200030800440823F04000100002B14D00340C1
:1003300002D0074000E0074094BEFF1FE0AD000080
:1003400060B5FF1F94BEFF1F34E5FF1F00B0FF1F05
:100350000000000000E400E05FE400E008ED00E0E1
:100360000050064000400640448004400000030165
:1003700004800440C010050014E000E0FF76010096
:100380000000202000DD68501CE00340A5C3945A03
:1003900000F00740FFFFFFFFFFFFFFFFFFFFFFFF32
:1003A000FFFFFFFFFFFFFFFFFFFFFFFFFFFFFFFF5D
:1003B000FFFFFFFFFFFFFFFFFFFFFFFFFFFFFFFF4D
:1003C000FFFFFFFFFFFFFFFFFFFFFFFFFFFFFFFF3D
:1003D000FFFFFFFFFFFFFFFFFFFFFFFFFFFFFFFF2D
:1003E000FFFFFFFFFFFFFFFFFFFFFFFFFFFFFFFF1D
:1003F000FFFFFFFFFFFFFFFFFFFFFFFFFFFFFFFF0D
:10040000FFFFFFFFFFFFFFFFFFFFFFFFFEFFFFFFFD
:1004100010B5054C237833B9044B13B10448AFF33E
:1004200000800123237010BD94BEFF1F0000000058
:10043000E0AD000008B5064B1BB106480649AFF316
:1004400000800648036813B1054B03B1984708BD07
:1004500000000000E0AD000098BEFF1F94BEFF1F2B
:10046000000000000F4B0360417202610023037221
:10047000C36039B11946026942F823100133427A48
:100480009A42F8DC084B1A680AB9186004E053690C
:100490000BB11A46FBE75061002343618380C380A0
:1004A000704700BFF8960000E8E2FF1F144B03609E
:1004B0001023437200F15803036100230372C360E9
:1004C0001946026942F823100133427A9342F8DB5D
:1004D0000C4B1A680AB9186004E053690BB11A464C
:1004E000FBE75061002343618380C380064A0260BA
:1004F0004FF48031C21891610433402BFAD1704718
:10050000F8960000E8E2FF1F20A5000010B50446A1
:100510000F4B03600023437203610372C3600D4BF2
:100520001A680AB9186004E053690BB11A46FBE770
:10053000546100236361A380E380074A2260074A75
:10054000A26184F82A30204603F0E6F8204610BD68
:10055000F8960000E8E2FF1FC8AA00000110013869
:10056000054944F6CC428A61044B9A6143F2333226
:100570000A621A62704700BF08C0FF1FD0C0FF1F89
:1005800008B50020014605F031FE0120002105F0EC
:100590002DFE0220002105F029FE0320002105F098
:1005A00025FE0420002105F021FE1120002105F088
:1005B0001DFE082005F088FB08BD00BF10B50E48E1
:1005C0000E4B197803F01CFF50B90D4C23685B6883
:1005D00020460C4919229847204606F0CDFF10BD51
:1005E000074C23685B68204607491A229847204633
:1005F00006F0C2FF10BD00BF68DEFF1F98B5FF1FE9
:1006000034E3FF1F009700001C97000010B5084C52
:10061000204601F0D9FE2046012101F0E9FD2046E7
:10062000002101F0A7FE2046002101F0D1FD10BD00
:1006300008C2FF1F10B504460348002101F0C8FDA1
:10064000024B1C6010BD00BF08C2FF1FC8BFFF1FC8
:10065000F8B50A20012105F0C9FD0A20012105F0A5
:1006600093FD334B1A7822F0020242F005021A7011
:1006700004F0B8FE2F48282106F08EFC2E4C2046B0
:1006800000F00AFD2046402100F074FDFFF768FFEE
:10069000FFF7BCFFFFF792FF284800F0DBFAFFF7F7
:1006A0006FFF274C204600210A46012300F00AFC78
:1006B000204608210022012300F004FC20460A21E4
:1006C0000022012300F0FEFB2046042101221346F4
:1006D00000F0F8FB20460C210122134600F0F2FB4B
:1006E0000024174F022601253846E1B232462B4638
:1006F00000F0E8FB0234102CF6D1124C204600F03A
:1007000015FB20468C2100F0C3FA0D4B5A7B9B7BD6
:10071000B2EB430F04DC120192FBF3F308490B82A6
:10072000074A084B1A600848FFF784FFF8BD00BF6E
:1007300012E3FF1F0082FF1FFCC1FF1F70C4FF1FD9
:10074000ECC4FF1FB8C4FF1FF90D000038B52D4BD6
:100750001B689BB905F06CFD2B4B18602B4B1B687D
:1007600063B12B4B1B6898470022284B1A6005F099
:100770005FFD254B1B68C01A264A1060214B1B6881
:10078000012B32D1244B1A68244B1B68D21A41F238
:1007900088339A4229D9204B1A68204B1A60204C82
:1007A00023685B6820461F490E2298472046194B54
:1007B00019680A22002306F0EFFE204606F0DCFE50
:1007C000194B1D89AD00194B93FBF5F523685B6848
:1007D0002046174915229847204629460A22002319
:1007E00006F0DAFE204606F0C7FE064A136801331B
:1007F0001360104A1268934202DD0022014B1A6016
:1008000038BD00BF60C2FF1FF8C1FF1FD4C4FF1F67
:10081000C8BFFF1F5CC2FF1FF0E1FF1F5CC4FF1FCA
:1008200034E3FF1F38970000B8C4FF1F008793030D
:100830004897000064B5FF1F2DE9F04F85B0B2481E
:10084000FFF764FEB148FFF761FEB148FFF75EFEB7
:10085000B048FFF75BFEB048FFF758FEAF48FFF720
:1008600055FEAF48FFF752FEAE48FFF74FFEAE48C9
:10087000FFF74CFEAD48FFF749FEAD48FFF746FED7
:10088000AC48FFF743FEAC4D2846FFF70FFEAB4EDA
:100890003046FFF70BFEDFF81C834046022108F1CB
:1008A0001802FFF7DFFDA64BC8F80030404600F005
:1008B000A7FFDFF804A3504601210AF11802FFF751
:1008C000D1FDA04BCAF80030504600F093FD9E4881
:1008D0008D4B03604560002404724472C46006F0CE
:1008E0004DFC9A48894B0360456004724FF0010942
:1008F00080F80990C46006F041FC9548844B036081
:10090000456004724FF0020B80F809B0C46006F035
:1009100035FC90487F4B03604560047203274772A3
:10092000C46006F02BFC8C487B4B0360456004726E
:100930004FF004034372C46006F020FC8748774BF5
:100940000360456004724FF005034372C46006F013
:1009500015FC8348724B0360456004724FF0060338
:100960004372C46006F00AFC7E486E4B036045602B
:1009700004724FF007034372C46006F0FFFB7A482D
:10098000694B0360456004724FF008034372C46012
:1009900006F0F4FB7548654B0360456004724FF048
:1009A00009034372C46006F0E9FB7148604B0360C1
:1009B000456004724FF00A034372C46006F0DEFB28
:1009C0006C485C4B0360456004724FF00B0343724C
:1009D000C46006F0D3FB68484B4B0360466004726A
:1009E0004472C46006F0CAFB6448484B036046602A
:1009F000047280F80990C46006F0C0FB6048444B64
:100A000003604660047280F809B0C46006F0B6FB6B
:100A10005C48404B0360466004724772C46006F055
:100A2000ADFB59483C4B0360466004724FF0040331
:100A30004372C46006F0A2FB5448384B0360466022
:100A400004724FF005034372C46006F097FB5048F0
:100A5000334B0360466004724FF006034372C46078
:100A600006F08CFB4B482F4B0360466004724FF03E
:100A700007034372C46006F081FB47482A4B0360BA
:100A8000466004724FF008034372C46006F076FBC0
:100A90004248264B0360466004724FF009034372DC
:100AA000C46006F06BFB3E48214B03604660047255
:100AB0004FF00A034372C46006F060FB39481D4BD7
:100AC0000360466004724FF00B034372C46006F08B
:100AD00055FB35480560C0F8048004724472C46058
:100AE00006F04CFB31480660C0F80480047280F8C0
:100AF0000990C46006F042FB2D480560C0F804A0D0
:100B000004724472C46059E094C2FF1FC0C2FF1F48
:100B1000ECC2FF1F18C3FF1F44C3FF1F70C3FF1F9A
:100B20009CC3FF1FC8C3FF1FF4C3FF1F20C4FF1FC8
:100B300070BFFF1F9CBFFF1F08C0FF1FD0C0FF1F5B
:100B400040A5000030A50000D0BEFF1FE0BEFF1F83
:100B5000F0BEFF1F00BFFF1F10BFFF1F20BFFF1F02
:100B600030BFFF1F40BFFF1F50BFFF1F60BFFF1FF1
:100B70004CC2FF1FE8BFFF1FB0BEFF1F68C1FF1FB1
:100B800078C1FF1F88C1FF1F98C1FF1FA8C1FF1FA9
:100B9000B8C1FF1FC8C1FF1FD8C1FF1FE8C1FF1F99
:100BA000A0C0FF1FC0C0FF1FB0C0FF1F3CC2FF1F7F
:100BB00064C2FF1F74C2FF1FCCBFFF1F06F0DEFA26
:100BC000072300930E2301930C230293164814214C
:100BD0001522FF2300F0F0FE144821463A4600F0AB
:100BE000B3FE134849463A4600F0AEFE1148594656
:100BF0003A4600F0A9FE104839463A4600F0A4FEF5
:100C00000E4804213A4600F09FFE0D4A0D4B1A6033
:100C100005F00EFB0C4B18600C4B1A680C4B1A605D
:100C200005B0BDE8F08F00BF08C2FF1FF8BFFF1F6F
:100C30002CC2FF1F4CC4FF1FC0BEFF1F60C4FF1F9C
:100C400000A50000FCC1FF1FF8C1FF1FF0E1FF1F5E
:100C50005CC4FF1F382303808123C3801D2383814D
:100C60004382A3230383A823C383AA238384AB23C0
:100C7000438503868C23C386822383877823A0F849
:100C80004230704710B5044606F050FC204610BDB7
:100C900038B50C46018169B91C4806F047FC1C4C6C
:100CA00023685B6820461B4911229847204606F0BE
:100CB00063FC38BD8B00184A92FBF3F3591E174AA8
:100CC000914207D803EB43031A0110481449013A33
:100CD00006F014FCFF220D4B5A73124B1B7833B1F4
:100CE0000A4B1B7B03F1604303F564431A70084D04
:100CF0002B685B6828460C491622984728462146EF
:100D000006F086FC284606F037FC38BDD8C4FF1F25
:100D100034E3FF1F1CA000000087930357555505BF
:100D2000810E000020E3FF1F30A0000008B50189FC
:100D3000FFF7AEFF08BD00BF2DE9F04383B00546C5
:100D4000294CB4F908603C3E42692848214600F02D
:100D5000C1F8B6B2EB68C3EBC303590052312B693B
:100D6000C3EB033306EB031202320E2300934FF65C
:100D7000E0730193204609B212B20C2301F0F4FC97
:100D800020464FF6FF7102F0C3FC0236B6B20024D3
:100D9000DFF85C80144FDFF85C90A5B205EB4503EB
:100DA00038F91330002B17DB3846042132B202F039
:100DB00095FC05EB450538F9153003EB430503EBCE
:100DC000850309EB0305284608F0C8FA02463B688C
:100DD0005B683846294698470134103EB6B20C2C61
:100DE000DBD103B0BDE8F08308C2FF1FECC4FF1FD6
:100DF00070C4FF1F6097000008B50248FFF79CFF12
:100E000008BD00BFB8C4FF1F2DE9F8430546002602
:100E10003446DFF86490DFF86480154F2A686B6908
:100E200003EB430302EB83022244937C13F0FF0F96
:100E300006D0F35F59F8240058F8231002F0EEFCB6
:100E4000013406360C2CE9D16B6901336B616A6998
:100E50002B681B8A9BB2013B9A4204DD6B6803B18D
:100E60002B6000236B610122024B1A60BDE8F883FE
:100E700070C4FF1FD4C4FF1F68B5FF1F48A0000047
:100E800008B50248FFF7C0FF08BD00BFB8C4FF1F88
:100E900008B5084A782313810023D3601361936156
:100EA00005480370802343730449054A07F064FF33
:100EB00008BD00BFB8C4FF1FD8C4FF1F850C0000C9
:100EC00060B5FF1F01EB410100EB81000244937408
:100ED000704700BF2DE9F04F87B007468A4690461D
:100EE000C2EBC2035B0052339BB20293B1F90830EC
:100EF0003A3B9BB2049300F11202039200F11E03ED
:100F000005934FF00E0B44E02B78BBB97A7B94FB32
:100F1000F2F303FB124348F270424BF65761002B89
:100F20000CBF0B461346CDF800B00193504631B2CA
:100F30004A460C2301F018FC2B7853B1CDF800B0D1
:100F400040F2FF720192504631B24A460C2300F043
:100F5000CBFF44450BD1CDF800B04FF6FF730193A2
:100F60005046029B19B24A460C2301F0FDFB0134A6
:100F70000C350E36B6B2FB7AA342C5DC049AA2F158
:100F800010039BB20493039B01330393059A93428E
:100F900009D0FB7A002BF1D0039D52260024049B3C
:100FA0000FFA83F9B0E707B0BDE8F08F10B4094B32
:100FB00003F5C95410210C200422D97218735A73F6
:100FC0009A73198203F5C973A342F6D15DF8044BF5
:100FD000704700BFECC4FF1F00207047002070471F
:100FE00070B50D461646242908BFC280114C204614
:100FF0000A2104F031FD23681B682046C5F3072150
:10100000984723681B682046E9B2984723681B6805
:101010002046C6F30721984723681B682046F1B293
:101020009847204604F01EFDD0F1010038BF002093
:1010300070BD00BF50E1FF1F10B5044679B92021F3
:101040005522FFF7CDFF034618B3E28842F00402B1
:101050002046242192B2FFF7C3FF034619E001297D
:1010600016D12A2140F27312FFF7BAFF034680B16E
:10107000204620218822FFF7B3FF034648B1E288CB
:1010800022F0040220462421FFF7AAFF034600E0D5
:101090000023184610BD00BF38B504460125057170
:1010A000334804F09BFB052005F0E4F8204630218E
:1010B00044F26002FFF794FF204626216C22FFF7DE
:1010C0008FFF204628214FF4F972FFF789FF204651
:1010D0002C2140F62272FFF783FF20463C2144F288
:1010E0004642FFF77DFF2046242140F23712FFF7EA
:1010F00077FF2046302144F2FF02FFF771FF2046C0
:1011000002217322FFF76CFF4FF4C87005F0B2F8AC
:1011100020462E2141F61D52FFF762FF2046042192
:101120000A46FFF75DFF204606214FF49872FFF74D
:1011300057FF20460A211022FFF752FF20460E21BA
:101140000022FFF74DFF2046102143F63C42FFF7F7
:1011500047FF2046222147F67F72FFF741FF2046D6
:1011600024213622FFF73CFF2572284638BD00BFF8
:1011700050E1FF1F38B504460D4679B901230371CC
:10118000222147F67F72FFF72BFFE28842F0100220
:101190002046242192B2FFF723FF38BD802994BF57
:1011A000C1F18005002503793BB100230371C2889A
:1011B00022F010022421FFF713FF2046222145EAE6
:1011C0000522FFF70DFF38BD10B504460846064955
:1011D00007F062FC054907F057FB07F0ADFD01463B
:1011E0002046FFF7C7FF10BD00000143EE7CFF3E25
:1011F00010B5044606F08CF8204610BD08B503482B
:101200000349044A07F0B8FD08BD00BF0CDEFF1F0C
:10121000F111000060B5FF1F08B503480349044AF7
:1012200007F0AAFD08BD00BF14DEFF1FF11100008A
:1012300060B5FF1F10B400F58074036831FB03F242
:1012400031FB13F302F30F0203F30F03C2EA03436C
:1012500040F8043B8442F0D15DF8044B704700BF76
:1012600070B400F58076B2F5803F11D10023C258EA
:10127000CC5892FA14F2C250C2185468CD186D6856
:1012800094FA15F454600833B3F5807FEFD112E07F
:1012900051F8043B32FB03F532FB13F305F30F0562
:1012A00003F30F03C5EA0343046893FA14F440F808
:1012B000044B8642ECD170BC704700BF2DE9F04171
:1012C00080460546002427466FB94046214605F072
:1012D00031FF0746A8B1A969B1F5803F11D00430AC
:1012E000FFF7A8FF0DE04046214605F017FF064630
:1012F00038B1381D311DAA69FFF7B2FF304605F03D
:10130000D7FE01340435102CDED13FB140463946BA
:10131000002205F0EDFE384605F0CAFEBDE8F0817A
:1013200008B5002105F0FAFE0246A0B172B60A4BDC
:10133000186810B91A6062B608BD084B1B681BB963
:10134000064B1A6062B608BD03490B60034B1A6076
:1013500062B605F0ADFE08BD2CDEFF1F1CDEFF1FD0
:1013600038B51C4B1A68126819791B4B19701B4B46
:101370009A4206D2A3F5807404F5807304F50074D4
:1013800002E0174B03F58074164A106898B1021DED
:1013900047F6FF7532F9021B2944091123F8021B95
:1013A0009C42F7D805F084FE0F4B1A680D490A607D
:1013B00000221A6005E040F2FF7223F8022B9C42E3
:1013C000FBD80A4B1B781BB14FF08042084B1A60C8
:1013D00038BD00BF20DEFF1F1F800040A0ABFF1FF5
:1013E000A0AAFF1F2CDEFF1F1CDEFF1F28DEFF1F31
:1013F00008E200E070B54F48012105F02BFF4E4B8D
:101400001A6842F480521A60802203F5032303F61F
:10141000F5731A700024494E01253480284604F0E3
:1014200029FF0834A4B223B2B3F5006FF5D1444BC1
:101430001B6813F4800F16D0424B1A6848F6A2734B
:101440001A409A420FD1404B1A6840F23F439A42E9
:1014500009D13E4B1B68012B05D13D4B1A6840F268
:1014600001139A4217D0364B1A6842F480021A6070
:101470000122A3F59033303B1A6040F23F42083B13
:101480001A60043B48F6A3721A60324A1A6040F2AE
:10149000011210331A60274C23681A6800222E4963
:1014A00019602368022119715A7101209871D8714D
:1014B00019725A729A72DA721A736FF001015973C3
:1014C0004FF0FF319973D97319691C4919611A7565
:1014D0005A75D98A4FF48071D9821A765A769A76DB
:1014E000DA76D88BD983998B06219983237903F1F6
:1014F000804303F504331A70B0221A7005F056FECB
:10150000164B18702279164B1A70227902F11001CD
:101510001448154B43F8210053119B0003F160431D
:1015200003F5614302F01F02012101FA02F21A6081
:1015300070BD00BF20DEFF1F2C80044000C00C40A7
:101540003C80044000600340046003400C600340A2
:1015500010600340A28F0100A0AAFF1F28DEFF1F1A
:101560001B8000406113000000B0FF1F08B5034856
:101570000349044A07F000FC08BD00BF20DEFF1F3E
:10158000F111000060B5FF1F70B5344B1A68126886
:101590001979334B1970334B9A420CD2324B1B786A
:1015A0006BB14FF08042314B1A60314D05F58074BC
:1015B00005F5007508E02E4C04F5807504E02C4D0F
:1015C00005F5807405F500752A4B1868D8B12A4BCB
:1015D000198800EB4103043333F8022B24F8042B61
:1015E000A542F9D840317F2902D8234B19800FE05A
:1015F0000026214B1E8005F05BFD204B1A681D491B
:101600000A601E6004E0002324F8043BA542FBD8D6
:10161000FE3C1B4B1868D8B11A4B198800EB4103EC
:10162000043333F8022B24F8042BA542F9D84031B7
:101630007F2902D8134B198070BD0024114B1C80E8
:1016400005F036FD104B1A680D490A601C6070BD2C
:10165000002324F8043BA542FBD870BD34DEFF1FF5
:101660001F800040A0ADFF1F4CDEFF1F08E200E01E
:10167000A0ACFF1F44DEFF1F30DEFF1F50DEFF1F48
:101680003CDEFF1F40DEFF1F48DEFF1F10B5044693
:10169000002105F043FD0146E0B172B61E4B1B6808
:1016A00033B91D4B186000221C4B1A8062B611E042
:1016B0001B4A12681AB91A4B186062B60AE016483B
:1016C0000260174A11600021144A118062B6184660
:1016D00005F0EEFC2046012105F020FD0246D0B1C8
:1016E00072B6104B186828B91A6000220E4B1A8087
:1016F00062B610BD0D4B1B681BB90C4B1A6062B66D
:1017000010BD08490B60094B1A600022064B1A8075
:1017100062B605F0CDFC10BD44DEFF1F30DEFF1FBA
:1017200050DEFF1F3CDEFF1F40DEFF1F48DEFF1FB5
:1017300030B4254B1A6842F400421A60234A1168FB
:1017400041F0020111601A6842F002021A60204B57
:101750001B68002B36DB1F4B1B68002B32DB4FF066
:1017600086421D4B1A6041F2100204331A600024B5
:10177000A43B1C6001205C3B1860184A04331A60CB
:101780004FF4803104331960154A04331A60154B45
:10179000154D2B60CC352C60144C2060144C154832
:1017A00004600430016014490A60144A13604FF465
:1017B000C06302F5DF3202F5BA72136004321360BF
:1017C0000C32136030BC70473C80044040800440C1
:1017D00000F0024080F0024000F1024003000007E8
:1017E0001B0F0100000F0F0F14F0024084F00240A5
:1017F0000300004788F0024090F0024094F002405D
:1018000038B5314D2846012105F024FD00242F4B29
:101810001C602F4B1C60FFF78BFF4FF4C0622D4BF9
:101820001A602B681A682C4A1A602B6802221A71F7
:101830005C7101219971D9711A725C729C72DC72AF
:101840001C736FF001025A734FF0FF329A73DA7310
:101850001A69224A1A611C755C75DA8A4FF4807223
:10186000DA821C765C769C76DC76D98BDA839A8B6E
:1018700006229A832B7903F1804303F504331C700D
:101880008F221A7005F092FC154B18702A79154BAF
:101890001A70154A136843F0124343F001031360B2
:1018A0002A7902F110011148114B43F8210053111C
:1018B0009B0003F1604303F5614302F01F02012125
:1018C00001FA02F21A6038BD34DEFF1F44DEFF1F4A
:1018D0003CDEFF1F04B00440A0ACFF1F20F002401C
:1018E0004CDEFF1F1B80004000F002408915000005
:1018F00000B0FF1F08B503480349044A07F03CFA4B
:1019000008BD00BF34DEFF1FF111000060B5FF1FEE
:1019100008B503480349044A07F02EFA08BD00BF82
:1019200054DEFF1FF111000060B5FF1F08B503482A
:101930000349044A07F020FA08BD00BF5CDEFF1F20
:10194000F111000060B5FF1F38B504460D46426036
:1019500000238360044B1B680360084604F038FCD6
:1019600020736573204638BDF0E1FF1FF0B40746D1
:1019700000204FF0010CCB08FC5C01F00703C3F121
:1019800008039A420BD300FA03F50CFA03F6013E62
:10199000344044EA05001944D21AECD10AE09040E0
:1019A0009B1A44FA03F3012101FA02F2013A1340AF
:1019B000DBB21843F0BC704770B400250571114EBE
:1019C00006604177827703779DF80C3080F82230EB
:1019D0009DF8103080F823309DF8143080F82130C5
:1019E000F023C3804FF4A0730381C57445818581C2
:1019F000012383744FF6FF720282C28103758561F1
:101A000070BC7047B8AA000070B40029C0F2088109
:101A1000B0F906408C4240F30381002AC0F20081F5
:101A2000B0F90840944240F3FB807E4C2478002CAF
:101A300028D072B67B4C247814F0010F07D07A4C72
:101A400026687A4D2D683540794E35602560754C95
:101A5000247814F0020F07D0764C2668734D6D6819
:101A60003540734E756025606E4C247814F0040F79
:101A700007D0714C26686D4DAD6835406C4EB56031
:101A8000256062B66D4CE468B4F1384F0AD06B4CF7
:101A90006B4D25604FF03845E5604FF07845256186
:101AA000684D25608EB292B290F82010090441F082
:101AB000004141F02A01614C6163E16A11F0F00FCD
:101AC00018BFA56B01F47041B1F5405FF5D8C47F34
:101AD00046EA044444F0104458494C630C46E16A19
:101AE00011F0F00F18BFA56B01F47041B1F5405F24
:101AF000F5D8C17F46EA014646F010464F494E638D
:101B00000C46E16A11F0F00F18BFA56B01F47041AB
:101B1000B1F5405FF5D890F82010090441F000417C
:101B200041F02B01454C6163E16A11F0F00F18BFE1
:101B3000A56B01F47041B1F5405FF5D8C47F42EA6E
:101B4000044444F010443D494C630C46E16A11F0F2
:101B5000F00F18BFA56B01F47041B1F5405FF5D8E7
:101B6000C17F42EA014242F0104234494A63CA6AE4
:101B700012F0F00F18BF8C6B02F47042B2F5405FA8
:101B8000F5D890F82020120442F0004242F02C02D6
:101B90002A494A63CA6A12F0F00F18BF8C6B02F42C
:101BA0007042B2F5405FF5D8244A1168C07F43EA1D
:101BB000004343F0C0535363D36A13F0805F04D1F2
:101BC00013F0F00FF8D0936BF6E71C4B4FF08052F8
:101BD000DA621960DB6A13F0F00F05D0174B9A6BCD
:101BE000DA6A12F0F00FFAD10E4B1B78C3B113F082
:101BF000010F03D00E4B1A68134B1A60094B1B7868
:101C000013F0020F03D00A4B5A68104B1A60054BB1
:101C10001B7813F0040F03D0054B9A680C4B1A6025
:101C200070BC7047F8E0FF1F80E100E0E0E0FF1FBC
:101C3000ECE0FF1F84E100E088E100E000C002402A
:101C400001401F0000001F8000E100E004E100E00F
:101C500008E100E0F0B4BDF81040C68837B28F420A
:101C600040F32781B0F90850954240F32281CF1804
:101C7000013F35B2AF42A4BFC1EB06031BB28E4D8C
:101C80002D78002D28D072B68B4D2D7815F0010FD0
:101C900007D08A4D2F688A4E36683E40894F3E6095
:101CA0002E60854D2D7815F0020F07D0864D2F68D8
:101CB000834E76683E40834F7E602E607E4D2D7849
:101CC00015F0040F07D0814D2F687D4EB6683E4059
:101CD0007C4FBE602E6062B67D4DED68B5F1384F29
:101CE0000AD07B4D7B4E2E604FF03846EE604FF0B1
:101CF00078462E61784E2E601FFA81FC9DB20CF161
:101D0000FF372F44BFB292B290F820301B0443F04B
:101D1000004343F02A036E494B63CB6A13F0F00F84
:101D200018BF8E6B03F47043B3F5405FF5D8C17FE5
:101D30004CEA014141F01041654B59631946CB6AA9
:101D400013F0F00F18BF8E6B03F47043B3F5405FD0
:101D5000F5D8C17F47EA014141F010415C4B59631E
:101D60001946CB6A13F0F00F18BF8E6B03F4704363
:101D7000B3F5405FF5D890F820301B0443F00043E2
:101D800043F02B0352494B63CB6A13F0F00F18BF9B
:101D90008E6B03F47043B3F5405FF5D8C17F42EA20
:101DA000014141F010414A4B59631946CB6A13F087
:101DB000F00F18BF8E6B03F47043B3F5405FF5D896
:101DC000C37F42EA034242F01042414B5A631A4633
:101DD000D36A13F0F00F18BF916B03F47043B3F59F
:101DE000405FF5D890F820301B0443F0004343F0E7
:101DF0002C03374A5363D36A13F0F00F18BF916B6B
:101E000003F47043B3F5405FF5D8314A11E0C37F66
:101E100044EA034343F010435363D36A13F0F00FD3
:101E200018BF916B03F47043B3F5405FF5D8013DE3
:101E3000ADB22BB2012BEADC254B1968C27F44EA14
:101E4000024242F0C0525A631A46D36A13F0805FCE
:101E500004D113F0F00FF8D0936BF6E71C4B4FF062
:101E60008052DA621960DB6A13F0F00F05D0184B6C
:101E70009A6BDA6A12F0F00FFAD10F4B1B78C3B1EC
:101E800013F0010F03D00F4B1A68144B1A600A4B62
:101E90001B7813F0020F03D00A4B5A68104B1A60DC
:101EA000054B1B7813F0040F03D0064B9A680D4BBB
:101EB0001A60F0BC704700BFF8E0FF1F80E100E04F
:101EC000E0E0FF1FECE0FF1F84E100E088E100E0BC
:101ED00000C0024001401F0000001F8000E100E040
:101EE00004E100E008E100E02DE9F003BDF918701D
:101EF000BDF81C60C48825B28D4240F34E8105892F
:101F00000FFA85FC944540F3488101EB030808F182
:101F1000FF380FFA84FCE045A4BFC1EB04031BB2F9
:101F200002EB070C0CF1FF3C2CB2A445A4BFC2EBA2
:101F300005052FB29A4C2478002C34D072B6984CF8
:101F4000247814F0010F0BD0964CD4F800C0964DB5
:101F50002D680CEA0505DFF868C2CCF80050256052
:101F60008F4C247814F0020F0BD0904CD4F800C0A2
:101F70008D4D6D680CEA0505DFF844C2CCF80450BD
:101F80002560874C247814F0040F0BD0884CD4F8CB
:101F900000C0854DAD680CEA0505DFF824C2CCF819
:101FA0000850256062B6834CE468B4F1384F0AD01B
:101FB000804C814D25604FF03845E5604FF0784505
:101FC00025617E4D25601FFA81F808F1FF3C9C4495
:101FD0001FFA8CFC94B2611E394489B290F820201B
:101FE000120442F0004242F02A02724D6A63EA6A29
:101FF00012F0F00F18BFD5F8389002F47042B2F525
:10200000405FF4D8C57F48EA054545F01045694A68
:1020100055631546EA6A12F0F00F18BFD5F83880FC
:1020200002F47042B2F5405FF4D8C57F4CEA054532
:1020300045F010455F4A55631546EA6A12F0F00F05
:1020400018BFD5F838C002F47042B2F5405FF4D83A
:1020500090F82020120442F0004242F02B02554D2D
:102060006A63EA6A12F0F00F18BFD5F838C002F4BC
:102070007042B2F5405FF4D8C27F44EA024444F0B3
:1020800010444C4A54631446E26A12F0F00F18BF31
:10209000A56B02F47042B2F5405FF5D8C27F41EA09
:1020A000024141F01041434A51631146CA6A12F09D
:1020B000F00F18BF8C6B02F47042B2F5405FF5D898
:1020C00090F82020120442F0004242F02C023949DC
:1020D0004A63CA6A12F0F00F18BF8C6B02F47042A8
:1020E000B2F5405FF5D8002F3BDD984631494FF0FF
:1020F000805C32E0C27F46EA024242F010424A630C
:10210000CA6A12F0F00F18BF8C6B02F47042B2F57D
:10211000405FF5D8013D2DB2012DEBD10C68C27F97
:1021200046EA024242F0C0524A63CA6A12F0805F35
:1021300004D112F0F00FF8D08A6BF6E7C1F82CC08A
:102140000C60CA6A12F0F00F04D08A6BCA6A12F0EF
:10215000F00FFAD1013F3FB21FB1012BDEDD454642
:10216000C8E70F4B1B78C3B113F0010F03D0144B1A
:102170001A68144B1A600A4B1B7813F0020F03D035
:102180000F4B5A68104B1A60054B1B7813F0040F65
:1021900003D00B4B9A680D4B1A60BDE8F0037047F3
:1021A000F8E0FF1F80E100E0E0E0FF1F84E100E0D5
:1021B00088E100E000C0024001401F0000001F80D5
:1021C000ECE0FF1F00E100E004E100E008E100E0D6
:1021D00000B583B0B0F90630B0F908200092019143
:1021E00000210A46FFF780FE03B05DF804FB00BF44
:1021F00010B490F820301B0443F0004343F0360342
:102200005B4A5363D36A13F0F00F18BF946B03F467
:102210007043B3F5405FF5D801F00301C1740329A1
:1022200000F29F80DFE801F002295077504A1168E0
:10223000C37F1B0443F0006343F048035363D36A36
:1022400013F0805F04D113F0F00FF8D0936BF6E732
:10225000474B4FF08052DA621960DB6A13F0F00FDF
:1022600005D0434B9A6BDA6A12F0F00FFAD1F023E3
:10227000C3804FF4A073038173E03D4A1168C37FAC
:102280001B0443F0006343F028035363D36A13F045
:10229000805F04D113F0F00FF8D0936BF6E7344B66
:1022A0004FF08052DA621960DB6A13F0F00F05D04C
:1022B0002F4B9A6BDA6A12F0F00FFAD14FF4A07339
:1022C000C380F02303814CE0294A1168C37F1B04BB
:1022D00043F0006343F088035363D36A13F0805FD5
:1022E00004D113F0F00FF8D0936BF6E7204B4FF0CA
:1022F0008052DA621960DB6A13F0F00F05D01C4BD4
:102300009A6BDA6A12F0F00FFAD1F023C3804FF41F
:10231000A073038125E0164A1168C37F1B0443F0B4
:10232000006343F0E8035363D36A13F0805F04D182
:1023300013F0F00FF8D0936BF6E70D4B4FF080528F
:10234000DA621960DB6A13F0F00F05D0084B9A6B64
:10235000DA6A12F0F00FFAD14FF4A073C380F023C1
:1023600003810023438183815DF8044B704700BFE4
:1023700000C0024000290CBF20222122114B196805
:1023800090F8200042EA004242F000625A631A4686
:10239000D36A13F0805F04D113F0F00FF8D0936B81
:1023A000F6E7084B4FF08052DA621960DB6A13F0EF
:1023B000F00F05D0034B9A6BDA6A12F0F00FFAD1E6
:1023C000704700BF00C0024070B5054690F822304B
:1023D0000B2B02D0072B40F0AE8195F8212002F0A4
:1023E000FB01082940F0A78195F82310A1F10D0009
:1023F000C0B2012800F29F810B2B05D16E4B1878DB
:1024000020F00100187006E0072B04D16A4B187801
:1024100040F0010018700C2A05D1674B1A7822F0A1
:1024200002021A7006E0082A04D1634B1A7842F0BF
:1024300002021A700D2905D15F4B1A7822F00402AE
:102440001A7006E00E2904D15B4B1A7842F00402A0
:102450001A7002F0C7FF687FA97F03F05DF870B1C2
:10246000687F03F09FF80446E877A87F03F09AF8A6
:10247000204385F82000287FFF2805D11CE0002399
:10248000EB7785F8203070BD012103F0AFFE287F87
:10249000012103F079FE052003F0ECFE287F0021E6
:1024A00003F072FE142003F0E5FE287F012103F003
:1024B0006BFE962003F0DEFE404B1B78002B28D0ED
:1024C00072B63E4B1B7813F0010F07D03C4B1968D6
:1024D0003C4A12680A403C490A601A60374B1B7834
:1024E00013F0020F07D0394B1968364A52680A4078
:1024F00035494A601A60314B1B7813F0040F07D03E
:10250000334B19682F4A92680A402F498A601A6033
:1025100062B6304BDB68B3F1384F0AD02D4B2E4AF0
:102520001A604FF03842DA604FF078421A612B4A55
:102530001A602B48274A0378591ECEB24BB3841C2D
:10254000437895F8201043EA014343F00043536376
:10255000D36A13F0F00F18BF916B03F47043B3F517
:10256000405FF5D8A01911E014F8013BE97F43EA78
:10257000014343F000435363D36A13F0F00F18BFD5
:10258000916B03F47043B3F5405FF5D88442EBD10F
:10259000D1E7104A116895F820301B0443F000631E
:1025A00043F011035363D36A13F0805F1AD113F021
:1025B000F00FF8D0936BF6E712E3FF1FF8E0FF1F70
:1025C00080E100E0E0E0FF1FECE0FF1F84E100E0BD
:1025D00088E100E000C0024001401F0000001F80B1
:1025E00044AA0000544B4FF08052DA621960DB6A53
:1025F00013F0F00F05D0504B9A6BDA6A12F0F00F1F
:10260000FAD14E4B1B78C3B113F0010F03D04C4BE2
:102610001A684C4B1A60494B1B7813F0020F03D019
:10262000474B5A68484B1A60444B1B7813F0040F11
:1026300003D0434B9A68454B1A60782003F01AFE8A
:102640003E4B1B78002B28D072B63C4B1B7813F006
:10265000010F07D03E4B19683E4A12680A403849BC
:102660000A601A60354B1B7813F0020F07D03A4B03
:102670001968384A52680A4031494A601A602F4B3B
:102680001B7813F0040F07D0344B1968314A926855
:102690000A402B498A601A6062B6274BDB68B3F1A7
:1026A000384F0AD0244B2E4A1A604FF03842DA6075
:1026B0004FF078421A612B4A1A601F4A116895F848
:1026C00020301B0443F0006343F029035363D36AB3
:1026D00013F0805F04D113F0F00FF8D0936BF6E79E
:1026E000154B4FF08052DA621960DB6A13F0F00F7D
:1026F00005D0114B9A6BDA6A12F0F00FFAD10F4B3A
:102700001B78C3B113F0010F03D00D4B1A680D4BAA
:102710001A600A4B1B7813F0020F03D0084B5A685B
:10272000094B1A60054B1B7813F0040F03D0044BC0
:102730009A68064B1A6070BD00C00240F8E0FF1FA7
:10274000ECE0FF1F00E100E004E100E008E100E050
:1027500080E100E0E0E0FF1F84E100E088E100E0CC
:1027600001401F0000001F802DE9F00FBDF920403F
:10277000BDF82490B34D2D78002D28D072B6B14D00
:102780002D7815F0010F07D0AF4D2F68AF4E36688A
:102790003E40AF4F3E602E60AA4D2D7815F0020FDF
:1027A00007D0AC4D2F68A94E76683E40A84F7E609A
:1027B0002E60A44D2D7815F0040F07D0A64D2F687C
:1027C000A24EB6683E40A24FBE602E6062B6A34DD8
:1027D000ED68B5F1384F0AD0A04DA14E2E604FF0F4
:1027E0003846EE604FF078462E619E4E2E601FFAFE
:1027F00081F85F1E47441FFA87FB96B290F82020AD
:10280000120442F0004242F02A0294494A63CA6A22
:1028100012F0F00F18BF8D6B02F47042B2F5405FFA
:10282000F5D8C17F48EA014141F010418B4A51631C
:102830001146CA6A12F0F00F18BF8D6B02F4704295
:10284000B2F5405FF5D8C17F4BEA014141F010413C
:10285000824A51631146CA6A12F0F00F18BF8D6B9D
:1028600002F47042B2F5405FF5D890F820201204CF
:1028700042F0004242F02B0278494A63CA6A12F0E1
:10288000F00F18BF8D6B02F47042B2F5405FF5D8BF
:10289000C17F46EA014141F01041704A516311463F
:1028A000CA6A12F0F00F18BF8D6B02F47042B2F5D5
:1028B000405FF5D8C17F46EA014141F01041674AC7
:1028C00051631146CA6A12F0F00F18BF8D6B02F403
:1028D0007042B2F5405FF5D890F82020120442F023
:1028E000004242F02C025D494A63CA6A12F0F00FBE
:1028F00018BF8D6B02F47042B2F5405FF5D89C466C
:10290000CA46564D5146C27F49EA024242F0104241
:102910006A63EA6A12F0F00F18BFAF6B02F47042FC
:10292000B2F5405FF5D80CF1FF3C0FFA8CFCBCF11E
:10293000000FE7DC04F1FF3CB4441FFA8CFC90F874
:102940002020120442F0004242F02A02434D6A6302
:10295000EA6A12F0F00F18BFAF6B02F47042B2F5E2
:10296000405FF5D8C57F48EA054545F010453B4A2C
:1029700055631546EA6A12F0F00F18BFAF6B02F408
:102980007042B2F5405FF5D8C57F4BEA054545F08A
:102990001045324A55631546EA6A12F0F00F18BF27
:1029A000AF6B02F47042B2F5405FF5D890F820208A
:1029B000120442F0004242F02B02284D6A63EA6A98
:1029C00012F0F00F18BFAF6B02F47042B2F5405F27
:1029D000F5D8C57F4CEA054545F010451F4A5563BB
:1029E0001546EA6A12F0F00F18BFAF6B02F470429E
:1029F000B2F5405FF5D8C57F4CEA054545F0104576
:102A0000164A55631546EA6A12F0F00F18BFAF6B0D
:102A100002F47042B2F5405FF5D890F8202012041D
:102A200042F0004242F02C020C4D6A63EA6A12F056
:102A3000F00F18BFAF6B02F47042B2F5405FF5D8EB
:102A4000064D11E0F8E0FF1F80E100E0E0E0FF1F2D
:102A5000ECE0FF1F84E100E088E100E000C00240FC
:102A600001401F0000001F80C27F41EA024242F085
:102A700010426A63EA6A12F0F00F18BFAF6B02F4FB
:102A80007042B2F5405FF5D8013B1BB2002BEBDC86
:102A900090F820301B0443F0004343F02A03B44A6B
:102AA0005363D36A13F0F00F18BF956B03F47043B0
:102AB000B3F5405FF5D8C27F48EA024242F01042C7
:102AC000AB4B5A631A46D36A13F0F00F18BF956BDD
:102AD00003F47043B3F5405FF5D8C27F48EA024281
:102AE00042F01042A24B5A631A46D36A13F0F00F19
:102AF00018BF956B03F47043B3F5405FF5D890F8B9
:102B000020301B0443F0004343F02B03984A5363E7
:102B1000D36A13F0F00F18BF956B03F47043B3F54D
:102B2000405FF5D8C27F46EA024242F01042904B25
:102B30005A631A46D36A13F0F00F18BF956B03F46B
:102B40007043B3F5405FF5D8C27F4CEA024242F0D1
:102B50001042874B5A631A46D36A13F0F00F18BF1E
:102B6000956B03F47043B3F5405FF5D890F82030CF
:102B70001B0443F0004343F02C037D4A5363D36AA4
:102B800013F0F00F18BF956B03F47043B3F5405F7B
:102B9000F5D8A046764AC37F41EA034343F0104389
:102BA0005363D36A13F0F00F18BF956B03F47043AF
:102BB000B3F5405FF5D808F1FF380FFA88F8B8F19F
:102BC000000FE8DC90F820301B0443F0004343F092
:102BD0002A03674A5363D36A13F0F00F18BF956B4B
:102BE00003F47043B3F5405FF5D8C27F4BEA02426D
:102BF00042F010425E4B5A631A46D36A13F0F00F4C
:102C000018BF956B03F47043B3F5405FF5D8C27FEE
:102C10004BEA024242F01042554B5A631A46D36ABD
:102C200013F0F00F18BF956B03F47043B3F5405FDA
:102C3000F5D890F820301B0443F0004343F02B03F9
:102C40004B4A5363D36A13F0F00F18BF956B03F42C
:102C50007043B3F5405FF5D8C27F46EA024242F0C6
:102C60001042434B5A631A46D36A13F0F00F18BF51
:102C7000956B03F47043B3F5405FF5D8C27F4CEA1F
:102C8000024242F010423A4B5A631A46D36A13F09A
:102C9000F00F18BF956B03F47043B3F5405FF5D8A0
:102CA00090F820301B0443F0004343F02C03304ADB
:102CB0005363D36A13F0F00F18BF956B03F470439E
:102CC000B3F5405FF5D82A4AC37F41EA034343F096
:102CD00010435363D36A13F0F00F18BF956B03F4DE
:102CE0007043B3F5405FF5D8013C24B2002CEBDC17
:102CF0001F4B196890F82020120442F000625A63BA
:102D00001A46D36A13F0805F04D113F0F00FF8D0A5
:102D1000936BF6E7164B4FF08052DA621960DB6A6C
:102D200013F0F00F05D0124B9A6BDA6A12F0F00F25
:102D3000FAD1104B1B78C3B113F0010F03D00E4B27
:102D40001A680E4B1A600B4B1B7813F0020F03D05E
:102D5000094B5A680A4B1A60064B1B7813F0040F94
:102D600003D0054B9A68074B1A60BDE8F00F704717
:102D700000C00240F8E0FF1FECE0FF1F00E100E0B0
:102D800004E100E008E100E02DE9F04F8FB00546D6
:102D90008B460392BDF860A0BDF864C09DF86860E2
:102DA000B0F906208A4240F3E282B0F90820039885
:102DB000824240F3DC8206EB460201EB4202012A2A
:102DC00000F1D58200EBC602012A00F1D082E24573
:102DD00040F05681012E18D003EB8303374606EBF3
:102DE00046010A9172000B92B000099006EB860131
:102DF00008910822059200200490012106919F4A23
:102E00009A180D92B146564635E103EB8303039AB7
:102E100096B206F1080292B203920127974A9A18D5
:102E20000492B946574680E00498815C19EA010F84
:102E300018BF43F001035B00DBB20132052AF3D176
:102E40005C08002B67D01F2C02D01E2C17D10AE083
:102E500000972846594632B20523FEF7FBFE5AE09A
:102E60001E2C10D101E04FF0000A0AEB0B01009775
:102E7000284609B232B20423FEF7ECFE4BE04FF0D5
:102E8000000A0FFA86F804F01C031C2B11D11FFA5C
:102E90008AFA0AEB0B010097284609B2424603233F
:102EA000FEF7D8FE2401E4B20AF1040A1FFA8AFAF6
:102EB0002FE004F01803182B11D11FFA8AFA0AEB3D
:102EC0000B010097284609B242460223FEF7C2FED4
:102ED000E400E4B20AF1030A1FFA8AFA19E014F0D6
:102EE000100F10D01FFA8AFA0AEB0B01284609B21C
:102EF00042463B46FEF788FDA400E4B20AF1020A0E
:102F00001FFA8AFA05E06400E4B20AF1010A1FFA26
:102F10008AFA002CA4D14FEA49095FFA89F90136EF
:102F2000B6B203998E4200F02282002213467BE75C
:102F30000D98815C0698084218BF43F001035B00BE
:102F4000DBB20132052AF3D15C08002B00F084804B
:102F50001F2C02D01E2C23D110E00499039B01FBEF
:102F60000732CDF8009001962846594612B2089BC8
:102F7000FEF7BAFF70E01E2C1FD101E04FF0000AEF
:102F80000AFB07B10498039B00FB0732CDF80090C1
:102F90000196284609B212B2099BFEF7A5FF5BE035
:102FA0000498039900FB07134FF0000A1BB2079324
:102FB0000FFA89F80B9A12B20C9204F01C031C2B26
:102FC00013D11FFA8AFA07FB0AB1CDF800800196E7
:102FD000284609B2079A0A9BFEF786FF2401E4B24D
:102FE0000AF1040A1FFA8AFA34E004F01803182BD5
:102FF00013D11FFA8AFA0AFB07B1CDF800800196B7
:10300000284609B2079A0C9BFEF76EFFE400E4B273
:103010000AF1030A1FFA8AFA1CE014F0100F13D009
:103020001FFA8AFA0AFB07B1CDF8008001962846FC
:1030300009B2079A4346FEF757FFA400E4B20AF12B
:10304000020A1FFA8AFA05E06400E4B20AF1010AF2
:103050001FFA8AFA002C8ED106984300DBB2069341
:1030600004994B1C9BB20493059A531E9BB2059383
:10307000002B00F07C810022134659E748A5000090
:103080009B4A1278002A28D072B6994A127812F018
:10309000010F07D0974A106897490968014097487F
:1030A00001601160924A127812F0020F07D0944A20
:1030B00010689149496801409048416011608C4A0C
:1030C000127812F0040F07D08E4A10688A49896876
:1030D00001408A488160116062B68B4AD268B2F1C1
:1030E000384F0AD0884A894911604FF03841D16081
:1030F0004FF078411161864911601FFA8BF406EB9D
:10310000460704EB4707013FBFB2039881B201EBCA
:10311000C600013880B295F82020120442F0004227
:1031200042F02A02DFF8E081C8F834204246D2F8A3
:103130002C8018F0F00F18BFD2F8389008F47048BF
:10314000B8F5405FF3D8EA7F44EA024444F0104403
:103150006D4A5463D46A14F0F00F18BFD2F8388067
:1031600004F47044B4F5405FF4D8EC7F47EA0444BB
:1031700044F01044644A5463D46A14F0F00F18BF4A
:10318000976B04F47044B4F5405FF5D895F82020AF
:10319000120442F0004242F02B025B4C6263224672
:1031A000D46A14F0F00F18BF976B04F47044B4F5B0
:1031B000405FF5D8EA7F41EA024141F01041524AAE
:1031C0005163D16A11F0F00F18BF946B01F4704194
:1031D000B1F5405FF5D8E97F40EA014141F0104187
:1031E000494A5163D16A11F0F00F18BF906B01F496
:1031F0007041B1F5405FF5D895F82020120442F0F7
:10320000004242F02C0240494A630A46D16A11F05A
:10321000F00F18BF906B01F47041B1F5405FF5D825
:1032200003EB8303082104914FF00108394A13444A
:10323000354A9B4645E01BF8070008EA00000028D5
:1032400014BF504660464946EB7F40EA034343F0D3
:1032500010435363D36A13F0F00F18BF946B03F459
:103260007043B3F5405FF5D80131CBB29E42EBD845
:103270000137052FDFD10020EB7F4CEA034343F0F9
:1032800010435363D36A13F0F00F18BF916B03F42C
:103290007043B3F5405FF5D80130C3B29E42EBD81E
:1032A000039B01330393DBB29E4201D90027C2E79F
:1032B0004FEA48085FFA88F80498431E9BB20493CB
:1032C0002BB1002EF4D0002103918946EEE70E4B7E
:1032D000196895F82020120442F000625A63DA6AF5
:1032E00012F0805F18D112F0F00FF8D09A6BF6E769
:1032F000F8E0FF1F80E100E0E0E0FF1FECE0FF1FCF
:1033000084E100E088E100E000C0024001401F00CD
:1033100000001F8048A50000164B4FF08052DA6273
:103320001960DB6A13F0F00F05D0124B9A6BDA6A62
:1033300012F0F00FFAD1104B1B78C3B113F0010F4C
:1033400003D00E4B1A680E4B1A600B4B1B7813F010
:10335000020F03D0094B5A680A4B1A60064B1B78C0
:1033600013F0040F03D0054B9A68074B1A600FB097
:10337000BDE8F08F00C00240F8E0FF1FECE0FF1F47
:1033800000E100E004E100E008E100E02DE9F04F99
:1033900085B0804602920393DDF838A00E460029DE
:1033A00039D001274FF0000B039B5D1C029C0023CA
:1033B0000FFA8AF900E00135013C07FA04F21642DF
:1033C00003D00133002CF6D10EE0002B20DD691E66
:1033D000C91AB8F80E200092404609B24A461BB2FC
:1033E000FEF738FC5B4613E0002B0ADDE91AB8F85B
:1033F0000E200092404609B20FFA8AF21BB2FEF785
:1034000029FC0AF1010A0F9B013B0F93CCD102E08A
:10341000002CD0D1F5E705B0BDE8F08F2DE9F04FD5
:1034200087B00746D0F818B09BF80E308B4209D809
:103430009BF80F20914205D8CB1A9BF8121001FB84
:1034400003F113E09BF810209142C0F0FF809BF83D
:103450001100814200F2FA809BF80F000130014414
:10346000CB1A9A1A9BF8121001FB02F1DBF800004C
:103470009BF81220FEF77AFADBF8083003EB00081D
:10348000404600210322FEF771FA002840F0DE805A
:103490009BF81390404603214A46FEF767FA04461C
:1034A00009F103099BF81460404649463246FEF78D
:1034B0005DFA0546B1449BF81560404649463246E0
:1034C000FEF754FA731E012202FA03F3184204D0E5
:1034D00002FA06F3C31A049300E00490049A0392DC
:1034E000B1449BF81660404649463246FEF73EFA24
:1034F000731E012202FA03F3184204D002FA06F303
:10350000C31A059300E00590B1449BF8176040464C
:1035100049463246FEF72AFAB7F90A30002BBCBFFB
:1035200000237B817B89039A02FA83FABAF1000FA8
:1035300004DA049A9B1A7B814FF0000A0AEB04021A
:10354000B7F906309A4210DD3B7D002B7ED0039BFD
:10355000002BAEBF0023049A53427B819BF81820B6
:10356000BB891344BB814FF0000ABB89B7F908102F
:103570001AB291426ADD7A89104478819BF8192049
:1035800002FA83F35B1B059AC2EB030B0495002D33
:103590005CD0B1443B465F469B4609F101064FEAC9
:1035A000D90318F803206FEA090303F0070342FA6E
:1035B00003F313F0010F20D10025C5EB0409B9F185
:1035C000200F28BF4FF02009404631464A46FEF7FB
:1035D000CDF9014600970123019358464A4605EB71
:1035E0000A03FFF7D3FE4E444D44AC42E5D8013701
:1035F000049A013A0492B14625E04046314603223E
:10360000FEF7B4F90230039009F104090025661BA6
:10361000202E28BF2026404649463246FEF7A6F90E
:1036200001460097039B01935846324605EB0A0377
:10363000FFF7ACFEB1443544AC42E8D8039A1744D6
:10364000049B9B1A0493049A002AA6D107B0BDE8F4
:10365000F08F00BF10B584B004460B4682693AB1C2
:103660000A2902D10023438134E0FFF7D7FE31E07D
:103670000A2907D1827C838903EBC203838100235B
:10368000438127E00D2925D0B0F90A10B0F90C20AC
:10369000C0890090208A0190A07C02902046FFF70C
:1036A00073FBA37C03EB4301628902EB410292B2FC
:1036B0006281217D71B112B2B4F90610A3EB8300CF
:1036C00001EB40018A4205DDA28902EBC303A3811D
:1036D00000236381012004B010BD00BF10B4002995
:1036E00006DBC3881CB2A14203DB591E09B200E00D
:1036F00000214181002A06DB038919B28A4203DBDB
:103700005A1E12B200E0002282815DF8044B70471D
:103710000182C181704700BF08B50A20012102F073
:1037200065FD0A20012102F02FFD204A137823F0C5
:10373000020343F0050313701D4B196841F48051D7
:1037400019601C4B1C4919604FF03841D9604FF08B
:10375000784119614FF40070184908600220184937
:10376000087018491960137813F0010F07BF4FF460
:103770001072154B4FF40072144B1A600B4B1B78F0
:1037800013F0020F4FF400720CBF114B114B1A6073
:10379000064B1B7813F0040F07BF4FF410720E4B4B
:1037A0004FF400720D4B1A6008BD00BF12E3FF1FFB
:1037B0003C80044000C0024001401F8010C0044013
:1037C00018E3FF1F000C1F8018B0044008C004401D
:1037D0001CB004400CC0044014B0044004C00440B9
:1037E00008B572B6002380F82B3090F82A3013F019
:1037F000FF0F0FD0002380F82A3062B6064B1B88DB
:1038000023B1013B9BB2044A138023B95E2001F02F
:103810004DFE08BD62B608BD64DEFF1F38B5044624
:103820000D46FFF7DDFF5E2001F026FE744B1A887F
:1038300001321A8072B6C5F30742724B1B78190425
:1038400073B141F0104343F4306313436E494B634B
:103850000A46D36A03F47043B3F5405FF9D812E027
:103860006A4B1B680021197067494FF08053CB6287
:10387000134343F430634B630A46D36A03F4704343
:10388000B3F5405FF9D85F4B1B781A046BB1ABB24C
:103890001A4342F010425C4B5A631A46D36A03F44F
:1038A0007043B3F5405FF9D812E0584B1B68002213
:1038B0001A70554B4FF08052DA62AAB242F0805231
:1038C0005A631A46D36A03F47043B3F5405FF9D8DC
:1038D0004C4B1B781A045BB142F000424A4B5A63CE
:1038E0001A46D36A03F47043B3F5405FF9D80FE08A
:1038F000464B1B6800221A70434B4FF08051D9622F
:103900005A631A46D36A03F47043B3F5405FF9D89B
:103910003D4AD36A13F0F00FFBD03B4B9B6B3A4A06
:10392000D36A13F0F00FFBD0374B9B6B364AD36A48
:1039300013F0F00FFBD0344B9B6B324B1B781A0407
:103940005BB142F01042304B5A631A46D36A03F41B
:103950007043B3F5405FF9D80FE02C4B1B68002291
:103960001A70294B4FF08052DA625A631A46D36AB2
:1039700003F47043B3F5405FF9D8224B1B781A0467
:103980005BB142F08052204B5A631A46D36A03F46B
:103990007043B3F5405FF9D813E01C4B1B6800225D
:1039A0001A70194B4FF08052DA624FF0C0525A63CE
:1039B0001A46D36A13F0805FFBD0144B1B680122B8
:1039C0001A7000232385E361043525620E4AD36A09
:1039D00013F0F00FFBD00C4B996B49BA61621A4699
:1039E000D36A13F0F00FFBD0074B9B6B03F47F42BD
:1039F00041EA02216162DBB284F82A3062B638BD46
:103A000064DEFF1F18E3FF1F00C0024014E3FF1F26
:103A10002DE9F04F83B0054690F82B3013F0FF0FDF
:103A200040F0EA8490F82A3003F0FF06002B00F003
:103A3000E38403F0E1FA0190002800F0DD84E969F5
:103A40002B6A1944C1F30742A74B1B78180473B1C2
:103A500042EA000343F0104343F43063A34A536344
:103A6000D36A03F47043B3F5405FF9D812E0A04B7A
:103A70001B68002018709D4B4FF08050D8620243A5
:103A800042F430625A631A46D36A03F47043B3F5C2
:103A9000405FF9D8944B1B781A046BB18BB243F09A
:103AA00010431A43914B5A631A46D36A03F4704386
:103AB000B3F5405FF9D812E08D4B1B6800221A70F5
:103AC0008A4B4FF08052DA628AB242F080525A63D7
:103AD0001A46D36A03F47043B3F5405FF9D8824BBA
:103AE0001B781A045BB142F00042804B5A631A46BD
:103AF000D36A03F47043B3F5405FF9D80FE07C4B11
:103B00001B6800221A70794B4FF08051D9625A63BA
:103B10001A46D36A03F47043B3F5405FF9D8734A89
:103B2000D36A13F0F00FFBD0704B9B6B6F4AD36AD4
:103B300013F0F00FFBD06D4B9B6B6C4AD36A13F004
:103B4000F00FFBD0694B9B6B674B1B781A045BB182
:103B500042F01042654B5A631A46D36A03F470432D
:103B6000B3F5405FF9D80FE0614B1B6800221A7073
:103B70005E4B4FF08052DA625A631A46D36A03F4FE
:103B80007043B3F5405FF9D8574B1B781A045BB10B
:103B900042F01042554B5A631A46D36A03F47043FD
:103BA000B3F5405FF9D80FE0514B1B6800221A7043
:103BB0004E4B4FF08052DA625A631A46D36A03F4CE
:103BC0007043B3F5405FF9D8474B1B781A045BB1DB
:103BD00042F01042454B5A631A46D36A03F47043CD
:103BE000B3F5405FF9D80FE0414B1B6800221A7013
:103BF0003E4B4FF08052DA625A631A46D36A03F49E
:103C00007043B3F5405FF9D8374B1B781A045BB1AA
:103C100042F01042354B5A631A46D36A03F470439C
:103C2000B3F5405FF9D80FE0314B1B6800221A70E2
:103C30002E4B4FF08052DA625A631A46D36A03F46D
:103C40007043B3F5405FF9D8DDF8049009F1040240
:103C50002C8D032E00F2FC81022E72D0032E00F078
:103C60001881012E40F0958309F1080100221F4BB5
:103C700020481D4EDFF878C090464FF0805E4FF030
:103C8000C0594FF0010ADF6A17F0F00FFBD09F6BAD
:103C9000BFB24FEA272B30F81BB021F804BCFFB2AB
:103CA00030F8177021F8027C752A25DC37784FEA46
:103CB000074B4FB14BF010475F63DF6A07F4704763
:103CC000B7F5405FF9D837E0DCF8007087F800807E
:103CD000C3F82CE0C3F834E0DF6A07F47047B7F5A7
:103CE000405FF9D828E000BF18E3FF1F00C0024082
:103CF00014E3FF1FF8A20000772A1DDC37784FEA93
:103D0000074B4FB14BF080575F63DF6A07F4704792
:103D1000B7F5405FF9D80FE0DCF8007087F8008055
:103D2000C3F82CE0C3F83490DF6A17F0805FFBD053
:103D3000DCF8007087F800A002320431802AA2D19A
:103D40001DE30021BE4BBF48BF4EDFF800C38846CD
:103D50004FF0805EDF6A17F0F00FFBD09F6BBFB2B1
:103D60004FEA272930F819A0FFB230F817900FFA60
:103D70008AFB17460BFA84F464101480A2F802A0A0
:103D80000FFA89FA0BEB0A0464109480A2F80690EB
:103D9000DC6A14F0F00FFBD09C6BA4B24FEA24292C
:103DA00030F819B0E4B230F814400FFA8BF9CA4475
:103DB0004FEA6A0AA7F808A0A7F80AB009FA84F936
:103DC0004FEA6909A7F80C90FC816F2900F3F8828B
:103DD00037784FEA07494FB149F010475F63DF6A10
:103DE00007F47047B7F5405FF9D8E5E2DCF80070FA
:103DF00087F80080C3F82CE0C3F834E0DF6A07F4EA
:103E00007047B7F5405FF9D8D6E237784FEA0749EF
:103E10004FB149F010475F63DF6A07F47047B7F5A9
:103E2000405FF9D82FE0DCF8007087F80080C3F815
:103E30002CE0C3F834E0DF6A07F47047B7F5405F61
:103E4000F9D820E037784FEA07494FB149F0805759
:103E50005F63DF6A07F47047B7F5405FF9D812E097
:103E6000DCF8007087F80080C3F82CE04FF0C057F2
:103E70005F63DF6A17F0805FFBD04FF00107DCF86B
:103E8000009089F800700831103280297FF462AF09
:103E900077E200266A4BDFF8ACE1DFF8ACB1DFF87F
:103EA000AC91A846D96A11F0F00FFBD0996B89B29A
:103EB00008123EF81000C9B23EF8117024B205B2E3
:103EC000114604EB440CAC444FEAAC0CA2F800C021
:103ED00004EB050C4FEA6C0CA2F802C005EB450C94
:103EE0006444A4109480D08038B20CEB0004A41079
:103EF00014812C186410548100EB400C05EB0C0469
:103F0000A4109481D781DC6A14F0F00FFBD09C6B75
:103F1000A4B225123EF81550E4B23EF814405F2ECC
:103F200000F352829BF800704FEA074A4FB14AF003
:103F300010475F63DF6A07F47047B7F5405FF9D851
:103F400046E24FF00007D9F800A08AF800704FF061
:103F50008057DF625F63DF6A07F47047B7F5405F41
:103F6000F9D835E29BF800704FEA074A4FB14AF0A2
:103F700010475F63DF6A07F47047B7F5405FF9D811
:103F800035E04FF00007D9F800A08AF800704FF034
:103F90008057DF625F63DF6A07F47047B7F5405F01
:103FA000F9D824E09BF800704FEA074A4FB14AF075
:103FB00080575F63DF6A07F47047B7F5405FF9D851
:103FC00015E04FF00007D9F800A08AF800704FF014
:103FD0008057DF624FF0C0575F63DF6A17F0805F82
:103FE000FBD04FF00107D9F800A08AF800702FB27B
:103FF000BC444FEAAC0CA1F810C000EB070C4FEA30
:104000006C0CA1F812C007EB470C6044801088824A
:10401000CD8220B20CEB0005AD100D833D186D1064
:104020004D8300EB4000384480108883CC831036E9
:104030002032802E7FF436AF45462027A9E100BF0D
:1040400000C00240F8A2000018E3FF1F14E3FF1FA6
:10405000822E59D0832E00F0DF80812E40F088819F
:104060000021B54BB548DFF8D8E28C464FF08056BA
:104070004FF0C0594FF00108DF6A17F0F00FFBD086
:104080009F6B7FBA22F8027B7A291ADC07784FEA05
:10409000074A4FB14AF010475F63DF6A07F4704781
:1040A000B7F5405FF9D82BE0DEF8007087F800C064
:1040B000DE625E63DF6A07F47047B7F5405FF9D8E8
:1040C0001EE07B291CDC07784FEA074A4FB14AF013
:1040D00080575F63DF6A07F47047B7F5405FF9D830
:1040E0000EE0DEF8007087F800C0DE62C3F834909E
:1040F000DF6A17F0805FFBD0DEF8007087F8008081
:1041000001318029B8D13EE1A34600218A4B8B487A
:10411000DFF82CE28C464FF080564FF0C0584FF03D
:104120000109DC6A14F0F00FFBD09F6B7FBABFB2BD
:10413000DC6A14F0F00FFBD09C6B64BAA4B20FFAE7
:1041400087FA0AFA8BFB4FEA6B0BA2F800B0578094
:104150000AFA84FA4FEA6A0AA2F804A0D4807729FE
:1041600000F33A8107784FEA074A4FB14AF0104707
:104170005F63DF6A07F47047B7F5405FF9D82FE156
:10418000DEF8007087F800C0DE625E63DF6A07F465
:104190007047B7F5405FF9D822E107784FEA074A40
:1041A0004FB14AF010475F63DF6A07F47047B7F515
:1041B000405FF9D829E0DEF8007087F800C0DE62C1
:1041C0005E63DF6A07F47047B7F5405FF9D81CE01B
:1041D00007784FEA074A4FB14AF080575F63DF6ABA
:1041E00007F47047B7F5405FF9D80EE0DEF80070CD
:1041F00087F800C0DE62C3F83480DF6A17F0805FA2
:10420000FBD0DEF8007087F8009004310832802976
:1042100000F0BC80A34684E7A0460021464B4748F7
:10422000DFF81CE18C464FF080574FF0010BDC6A41
:1042300014F0F00FFBD09C6B94FA94FA1FFA8AFAF0
:10424000DC6A14F0F00FFBD09C6B64BAA4B20FFAD6
:1042500088F80FFA8AF608EB4809B1444FEAA90931
:10426000A2F8009008EB06094FEA6909A2F802904B
:1042700006EB4609C8444FEAA808A2F80480A2F851
:1042800006A00FFA84F8C1444FEAA909A2F80890E1
:1042900006EB08094FEA6909A2F80A9008EB4808FA
:1042A0004644B6109681D4816F2900F39D8006782C
:1042B0004FEA06484EB148F010465E63DE6A06F4E7
:1042C0007046B6F5405FF9D892E0DEF8006086F8F7
:1042D00000C0DF625F63DE6A06F47046B6F5405FD9
:1042E000F9D885E006784FEA06484EB148F0104606
:1042F0005E63DE6A06F47046B6F5405FF9D831E0D9
:10430000DEF8006086F800C0DF625F63DE6A06F4F4
:104310007046B6F5405FF9D824E006784FEA0648C3
:1043200086B148F080565E63DE6A06F47046B6F5E4
:10433000405FF9D816E000BF00C0024018E3FF1F3D
:1043400014E3FF1FDEF8006086F800C0DF624FF064
:10435000C0565E63DE6A16F0805FFBD0DEF8006058
:1043600086F800B008311032802911D0A0465EE7EF
:10437000019802F09DFE2846FFF732FA3CE08027C4
:1043800007E0402705E04FF4807702E0802700E057
:10439000402728460199002202F0AAFE019802F067
:1043A00087FE2C85EB691F44EF616B6A9F4223D324
:1043B0002846FFF715FA1FE067297FF726AD41E58C
:1043C00067297FF722AD5EE54F2E7FF7CBAD0EE676
:1043D0004F2E7FF7C7ADE5E573297FF7DEAE14E713
:1043E00073297FF7DAAEF3E667297FF77BAFB9E78A
:1043F00067297FF777AF90E703B0BDE8F08F00BF84
:1044000038B504460A46012100F0B2F9B0B104F112
:10441000100528462146012200F04AFF28B9284607
:104420002146002200F044FF50B104F13800294633
:1044300000F048FC003018BF012038BD002038BD16
:10444000002038BD084B00225A719A719A721A7373
:104450000221196183F8302083F83C2003499963D5
:1044600083F83E20704700BF68DEFF1FD8AA000017
:10447000084B1A6842F480621A604FF00042DA6218
:10448000FF225A631A46D36A002BFCDA014B986B61
:10449000C0B2704700C0024010B50446164A174B20
:1044A0001A6010F0010F02D0FFF7E2FF013C052C6B
:1044B00004D9032100231148114A02E06108F9D10F
:1044C00004E04263023C01338B42FADB4CB10B4AFD
:1044D0000B48D36A13F0F00FFBD05063936B023C90
:1044E000F7D1002907DD054AD36A13F0F00FFBD09E
:1044F000936B0139F8D110BD00041F8000C0024049
:10450000FFFF0090064B1A6842F480621A604FF079
:104510000042DA6258631A46D36A002BFCDA70470D
:1045200000C0024008B505281ED8DFE800F00308E7
:104530000D1115194FF038420E4B1A6017E04FF06D
:1045400038420C4B1A6012E00B4A0A4B1A600EE01C
:104550000A4A084B1A600AE0094A064B1A6006E04C
:10456000084A044B1A6002E0074A024B1A6000F046
:1045700039FF08BDC8DEFF1F0000013801100138F7
:1045800003200038032001380650003808B50079B0
:10459000012101F0F9FD114B1B78F3B100220F4B03
:1045A0001A700F4B1B78C3B113F0010F03D00D4BE2
:1045B0001A680D4B1A600A4B1B7813F0020F03D0D8
:1045C000084B5A68094B1A60054B1B7813F0040F0F
:1045D00003D0044B9A68064B1A6008BDCCDEFF1F5F
:1045E000F8E0FF1FECE0FF1F00E100E004E100E065
:1045F00008E100E010B5244B1B78002B3ED10122CE
:10460000214B1A70214B1A68214B1B78002B28D0A4
:1046100072B61F4B1B7813F0010F07D01D4B1C689F
:104620001D49096821401D4C21601960184B1B78F9
:1046300013F0020F07D01A4B1C6817494968214034
:10464000164C61601960124B1B7813F0040F07D0F1
:10465000144B1C68104989682140104CA1601960F6
:1046600062B6114BDB68934208D00F4B0F491960BB
:10467000DA6042F080421A610D4A1A600079002126
:1046800001F082FD10BD00BFCCDEFF1FC8DEFF1FA2
:10469000F8E0FF1F80E100E0E0E0FF1FECE0FF1F1B
:1046A00084E100E088E100E000C0024001401F001A
:1046B00000001F8038B5044683797BB1008940F241
:1046C0000123984205D840F20225281AFFF7E4FE9C
:1046D00025812046FFF75AFF0023A37138BD00BF94
:1046E00070B50E46084B1C681D46A4B2FFF7C0FE0D
:1046F000FF2805D02B689BB21B1BB342F6DB01E001
:10470000012070BD002070BDF0E1FF1FF8B5054627
:104710000F461646FFF7CEFF2846FFF76BFF2846E9
:104720004FF49671FFF7DCFF47F04000FFF7EAFE19
:10473000182426FA04F0C0B2FFF7E4FE083C14F196
:10474000080FF6D127B1082F0CBF8720FF2000E00B
:104750009520FFF7D7FE0024FFF78AFEE87210F0DD
:10476000800F03D00134B4F5807FF5D1F8BD00BFD0
:104770002DE9F04F83B00446019100230373837247
:10478000837143710271824B1F68BFB210460121D1
:1047900001F0FAFC2079012101F028FD20790121A6
:1047A00001F0F2FC7B4B1A6842F480521A6006203A
:1047B000FFF7B8FE784B1A68784B1B78002B28D08F
:1047C00072B6764B1B7813F0010F07D0744B186844
:1047D0007449096801407448016019606F4B1B7887
:1047E00013F0020F07D0714B18686E4949680140F9
:1047F0006D4841601960694B1B7813F0040F07D0B6
:104800006B4B186867498968014067488160196087
:1048100062B6684BDB68934200F0AB80654B66493B
:104820001960DA6042F080421A61644A1A60A0E0BE
:104830002846FFF767FE013E16F0FF06F8D1574BFA
:104840001B78C3B113F0010F03D0574B1A685C4BB0
:104850001A60524B1B7813F0020F03D0524B5A6868
:10486000584B1A604D4B1B7813F0040F03D04E4B7E
:104870009A68554B1A602046FFF7BCFE4FF00008BF
:10488000DFF80C9109E0D9F80030DB1B9BB2B3F5DF
:10489000FA6F02D90123637167E020464146424620
:1048A000FFF734FF0546E0720128ECD120460821CD
:1048B0004FF4D572FFF72AFF10F0040F02D0012346
:1048C000237310E04FF00408FFF7D2FDE07208F107
:1048D000FF3313F0FF08F7D1AA2802D00223637137
:1048E00043E002232373237B022B14BF4FF0000A03
:1048F0004FF0804A4FF037094FF00008DFF890B0D2
:1049000009E0DBF80030DB1B9BB2B3F5FA6F02D98C
:104910000823637129E0204649464246FFF7F6FE28
:10492000204629215246FFF7F1FEE0720028E8D127
:10493000237B022B11D120463A210022FFF7E6FE0D
:1049400010B10623637110E0FFF792FD00F0C00084
:10495000C02811D1032323730EE02046FFF716FE73
:104960000198FFF7DFFD2E460DE02046FFF70EFE13
:1049700009E00A26FF255BE7FFF77AFDFFF778FDE0
:10498000FFF776FDE9E7304603B0BDE8F08F00BFE2
:10499000F0E1FF1F3C800440C8DEFF1FF8E0FF1F6E
:1049A00080E100E0E0E0FF1FECE0FF1F84E100E0B9
:1049B00088E100E000C0024001401F0000001F80AD
:1049C00000E100E004E100E008E100E070B5044629
:1049D0000E4B1D681E46ADB208E033689BB25B1BF0
:1049E000B3F5967F02DD0F23637108E0FFF740FD0A
:1049F000E072FF28F1D0FE2806D00D236371204617
:104A0000FFF7C4FD002070BD012070BDF0E1FF1F65
:104A1000F8B505460C4617461E46002B00F0898067
:104A20001344B3F5007F7FDC83792BB103688B429D
:104A300002D10389934216D92C602B7B032B18BF1C
:104A40006402284611212246FFF760FE10B10323BD
:104A50006B7169E02846FFF7B9FF002864D0002396
:104A60002B810123AB713846FFF716FD3046334AE0
:104A7000334B1A6016F0010F07D0069A541CFFF74B
:104A8000F7FC069B1870701E0694052804D90327AE
:104A900000232B492B4A02E04708F9D103E04A637F
:104AA00001339F42FBDCA0EB4700069A1044824290
:104AB00019D214462249DFF88CC0CA6A12F0F00FEE
:104AC000FBD0C1F834C08B6BC3F307222270637034
:104AD0000234A042F1D8069AD343034423F00103E1
:104AE00002331A44069200EB4700069B98420DD908
:104AF0001C461349CA6A12F0F00FFBD08B6BC3F34C
:104B00000722227063700234A042F3D82B89334409
:104B10009BB22B81AA7A12B1B3F5007F0BD3284642
:104B2000FFF7C8FD0120F8BD2846FFF72FFD002044
:104B3000F8BD0120F8BD0120F8BD00BF00041F80B2
:104B400000C00240FFFF009000B583B00092002239
:104B50004FF40073FFF75CFF03B05DF804FB00BF88
:104B6000F8B50646214B186840F4806018604FF095
:104B70000040D8625963114602F500770446DA6AAC
:104B8000002A0FDBFBE7DA6A002A14DBFBE7D36AB3
:104B9000002B1CDBFBE7112373713046FFF7F6FC9B
:104BA0000020F8BD08460A781D6845F480651D6040
:104BB000DC625A63E7E742781D6845F480651D6052
:104BC000DC625A630231B942D9D1084ADFE7FF20DB
:104BD000FFF798FCFF20FFF795FCFFF749FCF07208
:104BE00000F01F000528D6D10120F8BD00C002400A
:104BF00038B5044615460B4611B9122343712BE014
:104C0000027B032A18BF4B0218211A46FFF77EFDCC
:104C100010B1042363711FE02046FE212A46FFF7EE
:104C20009FFFC8B120464FF41671FFF759FD10B928
:104C30001523637110E020460D210022FFF766FD69
:104C400010B9FFF715FC10B11423637104E020467E
:104C5000FFF79CFC012038BD2046FFF797FC0020A1
:104C600038BD00BF014A024B1A607047011001387D
:104C7000C8DEFF1F10B50446006A012104F10802D6
:104C800000F0B2FA034650B1E3693BB9A368E361AF
:104C9000637963F07F036371012300E00123184609
:104CA00010BD00BF10B50446006900F0CFF920B177
:104CB000207D034B03EB401010BD002010BD00BF52
:104CC000DCDEFF1F38B504460D4683790BBB91F837
:104CD0002020102A07D1022383710023C3614B8C4B
:104CE0005B0183610CE0202A14D103238371496A9C
:104CF000C161284604F1180200F002FA034648B1E7
:104D00002562012363710022A260E26022612275A4
:104D100000E00023184638BDF8B504460F468379F5
:104D20007BB382698A422BD3022B02D1E16001233B
:104D300027E021B900238360C360012321E0C36819
:104D4000026A157C09355A1EEA40013921FA05F537
:104D5000AA4200D813B9E369A3600AE0AD1A08E0DB
:104D6000206AA168324600F095F9013D034610B96A
:104D700007E004F10806002DF2D1E760012300E00E
:104D800000231846F8BD00BF38B50446807918B333
:104D900094F90530002B1BDA20460121FFF782FF32
:104DA0000546C0B1A379012B9CBFA369C361A38B46
:104DB0004383E38B8382094B1B682BB1183005F1C9
:104DC000160198472B8B6B82637903F07F03637125
:104DD00000F010F938BD002038BD00BFD0DEFF1F45
:104DE0002DE9F04F85B00446884601928379012B66
:104DF00040F0BE80437913F0020F00F0B98013F049
:104E0000040F08D08169C3688B4204D0FFF784FF88
:104E1000002800F0AD80019A002A00F08C80164630
:104E2000DFF8B0A1DFF8B0B1206AE76890F804902D
:104E300009F1FF3909EA5729C7F3080719F0FF09F3
:104E400029D1002F40F0AA80A16851B9E36933B994
:104E50002046FFF70FFF002840F08E8088E0A36017
:104E60008AE003AA00F016F9002800F0A880039B4E
:104E7000226A92F820004FF6F871524A102808BFB3
:104E80000A46934205D32046FFF7F4FE002873D16B
:104E90006EE0A36070E0C7F50075ADB2AE4238BFFA
:104EA0003546A368023B027C93404269134499440F
:104EB000B5F5007F12D1DBF800304B4504BF4FF051
:104EC000FF33CBF80030404B186849464246FFF7A5
:104ED0008FFE00284CD008F5007824E07FB9E26806
:104EE000A3699A420BD300F085F8002840D0CBF894
:104EF0000090364A137843F00103137005E04846EA
:104F0000012100F0A3F8002832D0574478198742D5
:104F100009D03B46424612F8011B03F8011B8342AD
:104F2000F9D1C71BB844761BB6B2E3681D44E560EF
:104F3000002E7FF479AFE368A269934205D9A3619B
:104F4000637963F07F03637108E0214B1B682BB129
:104F5000019B1BB1637963F07F036371637913F085
:104F6000080F03D02046FFF70FFF08B1019826E095
:104F700001232371002022E0B6F5007F34BF3546BF
:104F80004FF40075236AA268023A197C02FA01F90B
:104F90005B699944B5F5007FA1D18CE7C7F5007531
:104FA000ADB2AE4238BF3546A368023B027C03FA7D
:104FB00002F943699944B5F5007FA0D17BE705B0BC
:104FC000BDE8F08FF8FFFF0FD8DEFF1FDCE0FF1F0A
:104FD000D0DEFF1FDCDEFF1F9CB5FF1F00B583B0D6
:104FE00002AB03F8011D19460122FFF7F9FE03B0D9
:104FF0005DF804FB08B5104B1B78D3B10F4B186854
:105000000F4B19680F4AFFF7F3FD034690B10E4BA3
:10501000196849B1094B18680A4AFFF7E9FD0346C8
:1050200040B10022084B1A600022034B1A70012382
:1050300000E00123184608BDDCE0FF1FD8DEFF1F9B
:105040009CB5FF1FDCDEFF1FD4DEFF1F38B5044612
:105050000D460C4B1B6883420DD0FFF7CBFF034678
:1050600070B1094B18682146084AFFF76DFD0346E9
:1050700030B1044B1C60064B1A7815431D70012398
:10508000184638BD9CB5FF1FD8DEFF1FDCDEFF1FB2
:10509000DCE0FF1F70B504460D461646C3680133B9
:1050A0008B4225D3C36990F82020102A0CBF080A30
:1050B000C8091844104B1B68984204D00021FFF720
:1050C000C5FF0346A8B194F82030102B06D1EDB2ED
:1050D0000A4B33F81530336001230AE005F07F05F1
:1050E000064B53F8253023F070433360012300E072
:1050F0000023184670BD00BF9CB5FF1FDCDEFF1FFC
:105100002DE9F04383B0044602AE46F8041D9146F3
:1051100000254FF400780F4F204601993246FFF7E3
:10512000B9FF034688B1237C08FA03F31D4494F8C1
:1051300020104FF6F873102914BF39461946019B09
:105140008B42E9D3C9F800500123184603B0BDE8EB
:10515000F08300BFF8FFFF0FF8B504460D46174671
:10516000012931D9C368013399422FD8C36990F816
:105170002020102A0CBF0E0ACE091E44164B1B68B5
:105180009E4205D030460021FFF760FF034600B382
:1051900094F82030102B04D1EDB2104B23F8157089
:1051A00004E005F07F050D4B43F825700C4B1A7891
:1051B00042F001021A70237E012B09D9A3681E4414
:1051C000084B1E60012304E0002302E0002300E0FE
:1051D00001231846F8BD00BF9CB5FF1FDCDEFF1F92
:1051E000DCE0FF1FD4DEFF1F2DE9F04F85B006463F
:1051F0008A46009217681FB101370023019305E02A
:105200000768012914BF002301230193F36803F108
:105210000108DBB13C4600254FF00209CB46A04512
:105220003CBF4C465F463046214603AAFFF732FF9B
:1052300060B1039B0BB1671C03E0631CDB1B534590
:1052400006D001350134F368AB42E8D800232AE0E8
:10525000304621466FF07042FFF77EFF034648B9A3
:1052600021E0651E304629462246FFF775FF0346BA
:1052700018B918E0BC42F4D803E0BD4201D92C466D
:10528000EFE7009B196829B130463A46FFF764FF03
:10529000034640B1009B1F60019B1BB10137376083
:1052A000012300E00123184605B0BDE8F08F00BFE0
:1052B000F8B50546494B19601446DAB1042A7FD87F
:1052C00000200146FFF7C2FE0346002800F083805D
:1052D000434B03EB041494F8AE3104F5D47413F08B
:1052E0007F036FD1D4F81210632974D9D4F80E401B
:1052F0000CB970E0002420460021FFF7A7FE03460A
:10530000002868D0364BB3F80B30B3F5007F5BD183
:10531000334B1B7C002B5ED0314AD289002A55D0FA
:105320002F4A517B002953D02B76297100232B74EF
:10533000012003E05A1C2A74072B4BD82B7C1E46F5
:1053400000FA03F29142F5D1254BD98A01B9596A85
:10535000A960234BDA892244EA61B3F8110087B2CD
:1053600068841B7C03FB01236B627A0102F2FF124B
:1053700003EB62236B611A4AB2F813200AB9184A88
:10538000126AE31A134423FA06F6EE6040F6F47349
:105390009E4204D80C2385F8203001231BE04FF6F1
:1053A000F4739E4204D8102385F82030012312E0C4
:1053B0000B4BDB6A6B62202385F8203001230AE067
:1053C000002308E0002306E0002304E0002302E0BD
:1053D0000B4600E000231846F8BD00BFD8DEFF1FD3
:1053E000DCDEFF1F184B1A6842F480521A60174B1C
:1053F000174A1A60174ADA6002F180421A61164AA7
:105400001A60164B1B7813F0010F07BF4FF4107290
:10541000134B4FF40072134B1A60104B1B7813F0B0
:10542000020F4FF400720CBF0F4B104B1A600B4B66
:105430001B7813F0040F07BF4FF410720C4B4FF49E
:1054400000720C4B1A6070473C80044000C0024060
:1054500001401F000110003800001F8012E3FF1FF1
:1054600018B0044008C004401CB004400CC0044004
:1054700014B0044004C0044030B45E2810D843097E
:10548000084A012101FA03F514782C431470064AE6
:1054900000F01F00814052F823400C4342F82340A3
:1054A00030BC7047F8E0FF1FE0E0FF1F5E2815D812
:1054B000430900F01F00012202FA00F0084A52F8E6
:1054C000231021EA000042F8230038B9054A0121DF
:1054D00001FA03F3117821EA03031370704700BF48
:1054E000E0E0FF1FF8E0FF1FA0F10903DBB2012B92
:1054F0000CD900F0FB03022B0AD00F280AD0143875
:10550000C0B203288CBF00200120704701207047E3
:10551000012070470120704738B504460D46FFF75B
:10552000E3FF034600283BD02846FFF7DDFF034694
:10553000B0B3022C02D10A2D0AD128E00A2C02D1E4
:10554000022D0AD125E0062C02D1092D0AD122E034
:10555000092C02D1062D0CD11FE0142C02D1172DDD
:105560000ED11CE0172C04D1B5F1140318BF012390
:1055700016E0152C04D1B5F1160318BF01230FE076
:10558000162C0DD1B5F1150318BF012308E0002337
:1055900006E0002304E0002302E0002300E00023F3
:1055A000184638BD0238152842D8DFE800F011410E
:1055B00041411D4141170B414141413B4141414165
:1055C000232F35294FF400721A4B1A6001207047BF
:1055D0004FF40072184B1A60012070474FF40072AC
:1055E000164B1A60022070474FF40072144B1A6079
:1055F000022070474FF40072124B1A60042070476B
:105600004FF40072104B1A60042070474FF4007280
:105610000E4B1A60082070474FF400720C4B1A6052
:10562000082070474FF400720A4B1A601020704730
:105630000020704710B0044000C004400CB004408B
:1056400010C0044014C0044008B0044018C0044016
:1056500004B0044000B00440044BD878C0B2044BFE
:105660001B6898421CBF024B1860704700600640E0
:10567000A0B5FF1F0B4B1B7813B90B4B1B7873B1F5
:105680000A4B1B78202B03D901230371002070479C
:10569000581C064A1070064AD15401207047002059
:1056A000704700BF62E1FF1F24E1FF1F63E1FF1F9E
:1056B00000E1FF1F704700BF024B1878024B1B78B8
:1056C000C01A704761E1FF1F60E1FF1F074B1B78A5
:1056D000074A12789A4205D9591C044A1170054AA2
:1056E000D05C70474FF0FF30704700BF60E1FF1F94
:1056F00061E1FF1F28E1FF1F054B1B78054A127867
:105700009A4286BF044AD05C4FF0FF30704700BF1A
:1057100060E1FF1F61E1FF1F28E1FF1F08B5104B8B
:10572000DB7813F0200F0CD1122000F005FD0D4B9B
:105730001B689BB100210C4A11700C4A10789847E5
:1057400008BD0B4A13780133DBB21370012B02D86A
:10575000084B1B7813B9122000F0EEFC08BD00BF07
:1057600000600640FCE0FF1F60E1FF1F61E1FF1FDA
:105770004CE1FF1F24E1FF1F38B514460D4B1B7889
:1057800013B90D4B1B7893B10C4B1D78C5F1210358
:10579000A34202D2012202711C4609482844224633
:1057A00000F06EF92544054B1D70204638BD0020E1
:1057B00038BD00BF62E1FF1F24E1FF1F63E1FF1F4F
:1057C00000E1FF1F002202714FF47A7181600273C1
:1057D000014A0260704700BFE8AA000000220C4B9B
:1057E0001A700C4B196841F0400119600A4B9A700D
:1057F0004FF4197209490A6004390A6027225A7065
:1058000004229A7120225A7180229A70704700BF38
:1058100024E1FF1F34800440006006400CA00440D7
:1058200008B53D4BDB78DBB213F0100F06D010212A
:10583000394AD17013F0400F03D108BD13F0400F67
:105840002CD013F0040F1BD00023344A1370344AB9
:105850001370344B1B681BB19847314B1B782BB925
:1058600001222F4B1A7000222F4B1A702A4BD02284
:105870009A702D4A12781A7101222C4B1A7009E085
:105880000122264B1A700022294B1A70224BC0228B
:105890009A701B790222204BDA7008BD1E4A92785A
:1058A00012F0100F1CD013F0010F14D11F4B1B78F6
:1058B0001B4A12789A4207D9591C1C4A11701A4A7D
:1058C000D25C154B1A7102E00022134B1A71D022E0
:1058D000114B9A701BE0104BC0229A701B7916E096
:1058E0000022144B1A7012201349032200F0DCFB33
:1058F000094B1B79DAB20E4B1B781F2B07D80749CF
:10590000097821B1581C0A4908700C49CA5402226E
:10591000014BDA7008BD00BF00600640F9E0FF1FD0
:1059200063E1FF1F48E1FF1F00E1FF1F64E1FF1F6C
:1059300061E1FF1F4CE1FF1F1D57000028E1FF1F21
:105940004900044B19700123034A1370034A137072
:10595000704700BF00E1FF1F62E1FF1F63E1FF1F0F
:105960002DE9F0418846364B1222DA709B7813F00D
:10597000200F03D0B422324B9A701AE0314B1D68CD
:105980001C460BE023685B1B0F2B07D92C4B002216
:105990009A7080229A700420BDE8F081FFF75CFEC7
:1059A00010F0200FEED10022274B1A70B022244BAA
:1059B0009A70FFF751FE10F0200FFAD0234B1B789E
:1059C0007BB30024224E1E4D204F335D2B71FFF719
:1059D00043FE10F0020F02D110F0200FF7D1022386
:1059E000EB70FFF739FE10F0100F04D08022144B3B
:1059F0009A70042018E010F0200F04D18022104B80
:105A00009A70042010E010F0010F04D0002C0CBF9D
:105A1000022003200BE00134E4B23B78A342D4D847
:105A200001E0002000E00020B8F1000F02D0802249
:105A3000034B9A700022074B1A70BDE8F08100BF3B
:105A400000600640F0E1FF1F24E1FF1F63E1FF1F3C
:105A500000E1FF1F62E1FF1F08B5C9B2FFF770FF49
:105A600008BD00BF08B50121FFF77AFF08BD00BFE0
:105A700008B50248FFF7A6FE08BD00BF50E1FF1FB2
:105A8000844641EA000313F003036DD1403A41D349
:105A900051F8043B40F8043B51F8043B40F8043B08
:105AA00051F8043B40F8043B51F8043B40F8043BF8
:105AB00051F8043B40F8043B51F8043B40F8043BE8
:105AC00051F8043B40F8043B51F8043B40F8043BD8
:105AD00051F8043B40F8043B51F8043B40F8043BC8
